{
  "contractName": "NFT",
  "abi": [
    {
      "inputs": [
        {
          "internalType": "string",
          "name": "_name",
          "type": "string"
        },
        {
          "internalType": "string",
          "name": "_symbol",
          "type": "string"
        },
        {
          "internalType": "string",
          "name": "_initBaseURI",
          "type": "string"
        },
        {
          "internalType": "uint256",
          "name": "_royalityFee",
          "type": "uint256"
        },
        {
          "internalType": "address",
          "name": "_artist",
          "type": "address"
        },
        {
          "internalType": "bool",
          "name": "_transferable",
          "type": "bool"
        }
      ],
      "stateMutability": "nonpayable",
      "type": "constructor"
    },
    {
      "anonymous": false,
      "inputs": [
        {
          "indexed": true,
          "internalType": "address",
          "name": "owner",
          "type": "address"
        },
        {
          "indexed": true,
          "internalType": "address",
          "name": "approved",
          "type": "address"
        },
        {
          "indexed": true,
          "internalType": "uint256",
          "name": "tokenId",
          "type": "uint256"
        }
      ],
      "name": "Approval",
      "type": "event"
    },
    {
      "anonymous": false,
      "inputs": [
        {
          "indexed": true,
          "internalType": "address",
          "name": "owner",
          "type": "address"
        },
        {
          "indexed": true,
          "internalType": "address",
          "name": "operator",
          "type": "address"
        },
        {
          "indexed": false,
          "internalType": "bool",
          "name": "approved",
          "type": "bool"
        }
      ],
      "name": "ApprovalForAll",
      "type": "event"
    },
    {
      "anonymous": false,
      "inputs": [
        {
          "indexed": true,
          "internalType": "address",
          "name": "previousOwner",
          "type": "address"
        },
        {
          "indexed": true,
          "internalType": "address",
          "name": "newOwner",
          "type": "address"
        }
      ],
      "name": "OwnershipTransferred",
      "type": "event"
    },
    {
      "anonymous": false,
      "inputs": [
        {
          "indexed": false,
          "internalType": "address",
          "name": "from",
          "type": "address"
        },
        {
          "indexed": false,
          "internalType": "address",
          "name": "to",
          "type": "address"
        },
        {
          "indexed": false,
          "internalType": "uint256",
          "name": "value",
          "type": "uint256"
        }
      ],
      "name": "Sale",
      "type": "event"
    },
    {
      "anonymous": false,
      "inputs": [
        {
          "indexed": false,
          "internalType": "bool",
          "name": "transferable",
          "type": "bool"
        }
      ],
      "name": "ToggleTransferable",
      "type": "event"
    },
    {
      "anonymous": false,
      "inputs": [
        {
          "indexed": true,
          "internalType": "address",
          "name": "from",
          "type": "address"
        },
        {
          "indexed": true,
          "internalType": "address",
          "name": "to",
          "type": "address"
        },
        {
          "indexed": true,
          "internalType": "uint256",
          "name": "tokenId",
          "type": "uint256"
        }
      ],
      "name": "Transfer",
      "type": "event"
    },
    {
      "inputs": [],
      "name": "artist",
      "outputs": [
        {
          "internalType": "address",
          "name": "",
          "type": "address"
        }
      ],
      "stateMutability": "view",
      "type": "function",
      "constant": true
    },
    {
      "inputs": [
        {
          "internalType": "address",
          "name": "owner",
          "type": "address"
        }
      ],
      "name": "balanceOf",
      "outputs": [
        {
          "internalType": "uint256",
          "name": "",
          "type": "uint256"
        }
      ],
      "stateMutability": "view",
      "type": "function",
      "constant": true
    },
    {
      "inputs": [],
      "name": "baseExtension",
      "outputs": [
        {
          "internalType": "string",
          "name": "",
          "type": "string"
        }
      ],
      "stateMutability": "view",
      "type": "function",
      "constant": true
    },
    {
      "inputs": [],
      "name": "cost",
      "outputs": [
        {
          "internalType": "uint256",
          "name": "",
          "type": "uint256"
        }
      ],
      "stateMutability": "view",
      "type": "function",
      "constant": true
    },
    {
      "inputs": [
        {
          "internalType": "uint256",
          "name": "tokenId",
          "type": "uint256"
        }
      ],
      "name": "getApproved",
      "outputs": [
        {
          "internalType": "address",
          "name": "",
          "type": "address"
        }
      ],
      "stateMutability": "view",
      "type": "function",
      "constant": true
    },
    {
      "inputs": [
        {
          "internalType": "address",
          "name": "owner",
          "type": "address"
        },
        {
          "internalType": "address",
          "name": "operator",
          "type": "address"
        }
      ],
      "name": "isApprovedForAll",
      "outputs": [
        {
          "internalType": "bool",
          "name": "",
          "type": "bool"
        }
      ],
      "stateMutability": "view",
      "type": "function",
      "constant": true
    },
    {
      "inputs": [],
      "name": "maxSupply",
      "outputs": [
        {
          "internalType": "uint256",
          "name": "",
          "type": "uint256"
        }
      ],
      "stateMutability": "view",
      "type": "function",
      "constant": true
    },
    {
      "inputs": [],
      "name": "name",
      "outputs": [
        {
          "internalType": "string",
          "name": "",
          "type": "string"
        }
      ],
      "stateMutability": "view",
      "type": "function",
      "constant": true
    },
    {
      "inputs": [],
      "name": "owner",
      "outputs": [
        {
          "internalType": "address",
          "name": "",
          "type": "address"
        }
      ],
      "stateMutability": "view",
      "type": "function",
      "constant": true
    },
    {
      "inputs": [
        {
          "internalType": "uint256",
          "name": "tokenId",
          "type": "uint256"
        }
      ],
      "name": "ownerOf",
      "outputs": [
        {
          "internalType": "address",
          "name": "",
          "type": "address"
        }
      ],
      "stateMutability": "view",
      "type": "function",
      "constant": true
    },
    {
      "inputs": [],
      "name": "renounceOwnership",
      "outputs": [],
      "stateMutability": "nonpayable",
      "type": "function"
    },
    {
      "inputs": [],
      "name": "royalityFee",
      "outputs": [
        {
          "internalType": "uint256",
          "name": "",
          "type": "uint256"
        }
      ],
      "stateMutability": "view",
      "type": "function",
      "constant": true
    },
    {
      "inputs": [
        {
          "internalType": "address",
          "name": "operator",
          "type": "address"
        },
        {
          "internalType": "bool",
          "name": "approved",
          "type": "bool"
        }
      ],
      "name": "setApprovalForAll",
      "outputs": [],
      "stateMutability": "nonpayable",
      "type": "function"
    },
    {
      "inputs": [
        {
          "internalType": "bytes4",
          "name": "interfaceId",
          "type": "bytes4"
        }
      ],
      "name": "supportsInterface",
      "outputs": [
        {
          "internalType": "bool",
          "name": "",
          "type": "bool"
        }
      ],
      "stateMutability": "view",
      "type": "function",
      "constant": true
    },
    {
      "inputs": [],
      "name": "symbol",
      "outputs": [
        {
          "internalType": "string",
          "name": "",
          "type": "string"
        }
      ],
      "stateMutability": "view",
      "type": "function",
      "constant": true
    },
    {
      "inputs": [
        {
          "internalType": "uint256",
          "name": "index",
          "type": "uint256"
        }
      ],
      "name": "tokenByIndex",
      "outputs": [
        {
          "internalType": "uint256",
          "name": "",
          "type": "uint256"
        }
      ],
      "stateMutability": "view",
      "type": "function",
      "constant": true
    },
    {
      "inputs": [
        {
          "internalType": "address",
          "name": "owner",
          "type": "address"
        },
        {
          "internalType": "uint256",
          "name": "index",
          "type": "uint256"
        }
      ],
      "name": "tokenOfOwnerByIndex",
      "outputs": [
        {
          "internalType": "uint256",
          "name": "",
          "type": "uint256"
        }
      ],
      "stateMutability": "view",
      "type": "function",
      "constant": true
    },
    {
      "inputs": [],
      "name": "totalSupply",
      "outputs": [
        {
          "internalType": "uint256",
          "name": "",
          "type": "uint256"
        }
      ],
      "stateMutability": "view",
      "type": "function",
      "constant": true
    },
    {
      "inputs": [
        {
          "internalType": "address",
          "name": "newOwner",
          "type": "address"
        }
      ],
      "name": "transferOwnership",
      "outputs": [],
      "stateMutability": "nonpayable",
      "type": "function"
    },
    {
      "inputs": [],
      "name": "transferable_",
      "outputs": [
        {
          "internalType": "bool",
          "name": "",
          "type": "bool"
        }
      ],
      "stateMutability": "view",
      "type": "function",
      "constant": true
    },
    {
      "inputs": [],
      "name": "toggleTransferable",
      "outputs": [
        {
          "internalType": "bool",
          "name": "",
          "type": "bool"
        }
      ],
      "stateMutability": "nonpayable",
      "type": "function"
    },
    {
      "inputs": [],
      "name": "transferable",
      "outputs": [
        {
          "internalType": "bool",
          "name": "",
          "type": "bool"
        }
      ],
      "stateMutability": "view",
      "type": "function",
      "constant": true
    },
    {
      "inputs": [],
      "name": "mint",
      "outputs": [],
      "stateMutability": "payable",
      "type": "function",
      "payable": true
    },
    {
      "inputs": [
        {
          "internalType": "uint256",
          "name": "tokenId",
          "type": "uint256"
        }
      ],
      "name": "tokenURI",
      "outputs": [
        {
          "internalType": "string",
          "name": "",
          "type": "string"
        }
      ],
      "stateMutability": "view",
      "type": "function",
      "constant": true
    },
    {
      "inputs": [],
      "name": "nextId",
      "outputs": [
        {
          "internalType": "uint256",
          "name": "",
          "type": "uint256"
        }
      ],
      "stateMutability": "view",
      "type": "function",
      "constant": true
    },
    {
      "inputs": [
        {
          "internalType": "address",
          "name": "to",
          "type": "address"
        },
        {
          "internalType": "uint256",
          "name": "tokenId",
          "type": "uint256"
        }
      ],
      "name": "approve",
      "outputs": [],
      "stateMutability": "nonpayable",
      "type": "function"
    },
    {
      "inputs": [
        {
          "internalType": "address",
          "name": "from",
          "type": "address"
        },
        {
          "internalType": "address",
          "name": "to",
          "type": "address"
        },
        {
          "internalType": "uint256",
          "name": "tokenId",
          "type": "uint256"
        }
      ],
      "name": "transferFrom",
      "outputs": [],
      "stateMutability": "payable",
      "type": "function",
      "payable": true
    },
    {
      "inputs": [
        {
          "internalType": "address",
          "name": "from",
          "type": "address"
        },
        {
          "internalType": "address",
          "name": "to",
          "type": "address"
        },
        {
          "internalType": "uint256",
          "name": "tokenId",
          "type": "uint256"
        }
      ],
      "name": "safeTransferFrom",
      "outputs": [],
      "stateMutability": "payable",
      "type": "function",
      "payable": true
    },
    {
      "inputs": [
        {
          "internalType": "address",
          "name": "from",
          "type": "address"
        },
        {
          "internalType": "address",
          "name": "to",
          "type": "address"
        },
        {
          "internalType": "uint256",
          "name": "tokenId",
          "type": "uint256"
        },
        {
          "internalType": "bytes",
          "name": "_data",
          "type": "bytes"
        }
      ],
      "name": "safeTransferFrom",
      "outputs": [],
      "stateMutability": "payable",
      "type": "function",
      "payable": true
    },
    {
      "inputs": [
        {
          "internalType": "string",
          "name": "_newBaseURI",
          "type": "string"
        }
      ],
      "name": "setBaseURI",
      "outputs": [],
      "stateMutability": "nonpayable",
      "type": "function"
    },
    {
      "inputs": [
        {
          "internalType": "uint256",
          "name": "_royalityFee",
          "type": "uint256"
        }
      ],
      "name": "setRoyalityFee",
      "outputs": [],
      "stateMutability": "nonpayable",
      "type": "function"
    }
  ],
  "bytecode": "0x6080604052670de0b6b3a7640000600c556014600d556040518060400160405280600581526020017f2e6a736f6e000000000000000000000000000000000000000000000000000000815250600f9080519060200190620000629291906200030e565b503480156200007057600080fd5b5060405162004b1c38038062004b1c833981810160405281019062000096919062000638565b85858160009080519060200190620000b09291906200030e565b508060019080519060200190620000c99291906200030e565b505050620000ec620000e06200016b60201b60201c565b6200017360201b60201c565b620000fd846200023960201b60201c565b8260118190555081601060006101000a81548173ffffffffffffffffffffffffffffffffffffffff021916908373ffffffffffffffffffffffffffffffffffffffff16021790555080601260006101000a81548160ff02191690831515021790555050505050505062000819565b600033905090565b6000600a60009054906101000a900473ffffffffffffffffffffffffffffffffffffffff16905081600a60006101000a81548173ffffffffffffffffffffffffffffffffffffffff021916908373ffffffffffffffffffffffffffffffffffffffff1602179055508173ffffffffffffffffffffffffffffffffffffffff168173ffffffffffffffffffffffffffffffffffffffff167f8be0079c531659141344cd1fd0a4f28419497f9722a3daafe3b4186f6b6457e060405160405180910390a35050565b620002496200016b60201b60201c565b73ffffffffffffffffffffffffffffffffffffffff166200026f620002e460201b60201c565b73ffffffffffffffffffffffffffffffffffffffff1614620002c8576040517f08c379a0000000000000000000000000000000000000000000000000000000008152600401620002bf9062000792565b60405180910390fd5b80600e9080519060200190620002e09291906200030e565b5050565b6000600a60009054906101000a900473ffffffffffffffffffffffffffffffffffffffff16905090565b8280546200031c90620007e3565b90600052602060002090601f0160209004810192826200034057600085556200038c565b82601f106200035b57805160ff19168380011785556200038c565b828001600101855582156200038c579182015b828111156200038b5782518255916020019190600101906200036e565b5b5090506200039b91906200039f565b5090565b5b80821115620003ba576000816000905550600101620003a0565b5090565b6000604051905090565b600080fd5b600080fd5b600080fd5b600080fd5b6000601f19601f8301169050919050565b7f4e487b7100000000000000000000000000000000000000000000000000000000600052604160045260246000fd5b6200042782620003dc565b810181811067ffffffffffffffff82111715620004495762000448620003ed565b5b80604052505050565b60006200045e620003be565b90506200046c82826200041c565b919050565b600067ffffffffffffffff8211156200048f576200048e620003ed565b5b6200049a82620003dc565b9050602081019050919050565b60005b83811015620004c7578082015181840152602081019050620004aa565b83811115620004d7576000848401525b50505050565b6000620004f4620004ee8462000471565b62000452565b905082815260208101848484011115620005135762000512620003d7565b5b62000520848285620004a7565b509392505050565b600082601f83011262000540576200053f620003d2565b5b815162000552848260208601620004dd565b91505092915050565b6000819050919050565b62000570816200055b565b81146200057c57600080fd5b50565b600081519050620005908162000565565b92915050565b600073ffffffffffffffffffffffffffffffffffffffff82169050919050565b6000620005c38262000596565b9050919050565b620005d581620005b6565b8114620005e157600080fd5b50565b600081519050620005f581620005ca565b92915050565b60008115159050919050565b6200061281620005fb565b81146200061e57600080fd5b50565b600081519050620006328162000607565b92915050565b60008060008060008060c08789031215620006585762000657620003c8565b5b600087015167ffffffffffffffff811115620006795762000678620003cd565b5b6200068789828a0162000528565b965050602087015167ffffffffffffffff811115620006ab57620006aa620003cd565b5b620006b989828a0162000528565b955050604087015167ffffffffffffffff811115620006dd57620006dc620003cd565b5b620006eb89828a0162000528565b9450506060620006fe89828a016200057f565b93505060806200071189828a01620005e4565b92505060a06200072489828a0162000621565b9150509295509295509295565b600082825260208201905092915050565b7f4f776e61626c653a2063616c6c6572206973206e6f7420746865206f776e6572600082015250565b60006200077a60208362000731565b9150620007878262000742565b602082019050919050565b60006020820190508181036000830152620007ad816200076b565b9050919050565b7f4e487b7100000000000000000000000000000000000000000000000000000000600052602260045260246000fd5b60006002820490506001821680620007fc57607f821691505b60208210811415620008135762000812620007b4565b5b50919050565b6142f380620008296000396000f3fe6080604052600436106101d85760003560e01c80636352211e11610102578063a22cb46511610095578063d5abeb0111610064578063d5abeb011461067a578063d6bfc22f146106a5578063e985e9c5146106d0578063f2fde38b1461070d576101d8565b8063a22cb465146105cd578063b88d4fde146105f6578063c668286214610612578063c87b56dd1461063d576101d8565b806392ff0d31116100d157806392ff0d31146105235780639395b7281461054e57806395d89b411461057957806398f24682146105a4576101d8565b80636352211e1461046757806370a08231146104a4578063715018a6146104e15780638da5cb5b146104f8576101d8565b806323b872dd1161017a57806343bc16121161014957806343bc1612146103ab5780634f6ccce7146103d657806355f804b31461041357806361b8ce8c1461043c576101d8565b806323b872dd1461030b5780632f745c5914610327578063326bb4ad1461036457806342842e0e1461038f576101d8565b8063095ea7b3116101b6578063095ea7b3146102825780631249c58b146102ab57806313faede6146102b557806318160ddd146102e0576101d8565b806301ffc9a7146101dd57806306fdde031461021a578063081812fc14610245575b600080fd5b3480156101e957600080fd5b5061020460048036038101906101ff9190612d57565b610736565b6040516102119190612d9f565b60405180910390f35b34801561022657600080fd5b5061022f6107b0565b60405161023c9190612e53565b60405180910390f35b34801561025157600080fd5b5061026c60048036038101906102679190612eab565b610842565b6040516102799190612f19565b60405180910390f35b34801561028e57600080fd5b506102a960048036038101906102a49190612f60565b6108c7565b005b6102b3610a2d565b005b3480156102c157600080fd5b506102ca610b5c565b6040516102d79190612faf565b60405180910390f35b3480156102ec57600080fd5b506102f5610b62565b6040516103029190612faf565b60405180910390f35b61032560048036038101906103209190612fca565b610b6f565b005b34801561033357600080fd5b5061034e60048036038101906103499190612f60565b610d0c565b60405161035b9190612faf565b60405180910390f35b34801561037057600080fd5b50610379610db1565b6040516103869190612faf565b60405180910390f35b6103a960048036038101906103a49190612fca565b610db7565b005b3480156103b757600080fd5b506103c0610f14565b6040516103cd9190612f19565b60405180910390f35b3480156103e257600080fd5b506103fd60048036038101906103f89190612eab565b610f3a565b60405161040a9190612faf565b60405180910390f35b34801561041f57600080fd5b5061043a60048036038101906104359190613152565b610fab565b005b34801561044857600080fd5b50610451611041565b60405161045e9190612faf565b60405180910390f35b34801561047357600080fd5b5061048e60048036038101906104899190612eab565b611052565b60405161049b9190612f19565b60405180910390f35b3480156104b057600080fd5b506104cb60048036038101906104c6919061319b565b611104565b6040516104d89190612faf565b60405180910390f35b3480156104ed57600080fd5b506104f66111bc565b005b34801561050457600080fd5b5061050d611244565b60405161051a9190612f19565b60405180910390f35b34801561052f57600080fd5b5061053861126e565b6040516105459190612d9f565b60405180910390f35b34801561055a57600080fd5b50610563611285565b6040516105709190612d9f565b60405180910390f35b34801561058557600080fd5b5061058e611298565b60405161059b9190612e53565b60405180910390f35b3480156105b057600080fd5b506105cb60048036038101906105c69190612eab565b61132a565b005b3480156105d957600080fd5b506105f460048036038101906105ef91906131f4565b6113b0565b005b610610600480360381019061060b91906132d5565b6113c6565b005b34801561061e57600080fd5b50610627611565565b6040516106349190612e53565b60405180910390f35b34801561064957600080fd5b50610664600480360381019061065f9190612eab565b6115f3565b6040516106719190612e53565b60405180910390f35b34801561068657600080fd5b5061068f61169d565b60405161069c9190612faf565b60405180910390f35b3480156106b157600080fd5b506106ba6116a3565b6040516106c79190612d9f565b60405180910390f35b3480156106dc57600080fd5b506106f760048036038101906106f29190613358565b6117cd565b6040516107049190612d9f565b60405180910390f35b34801561071957600080fd5b50610734600480360381019061072f919061319b565b611861565b005b60007f780e9d63000000000000000000000000000000000000000000000000000000007bffffffffffffffffffffffffffffffffffffffffffffffffffffffff1916827bffffffffffffffffffffffffffffffffffffffffffffffffffffffff191614806107a957506107a882611959565b5b9050919050565b6060600080546107bf906133c7565b80601f01602080910402602001604051908101604052809291908181526020018280546107eb906133c7565b80156108385780601f1061080d57610100808354040283529160200191610838565b820191906000526020600020905b81548152906001019060200180831161081b57829003601f168201915b5050505050905090565b600061084d82611a3b565b61088c576040517f08c379a00000000000000000000000000000000000000000000000000000000081526004016108839061346b565b60405180910390fd5b6004600083815260200190815260200160002060009054906101000a900473ffffffffffffffffffffffffffffffffffffffff169050919050565b600115156108d361126e565b151514610915576040517f08c379a000000000000000000000000000000000000000000000000000000000815260040161090c906134d7565b60405180910390fd5b600061092082611052565b90508073ffffffffffffffffffffffffffffffffffffffff168373ffffffffffffffffffffffffffffffffffffffff161415610991576040517f08c379a000000000000000000000000000000000000000000000000000000000815260040161098890613569565b60405180910390fd5b8073ffffffffffffffffffffffffffffffffffffffff166109b0611aa7565b73ffffffffffffffffffffffffffffffffffffffff1614806109df57506109de816109d9611aa7565b6117cd565b5b610a1e576040517f08c379a0000000000000000000000000000000000000000000000000000000008152600401610a15906135fb565b60405180910390fd5b610a288383611aaf565b505050565b6000610a37610b62565b9050600d54811115610a4857600080fd5b610a50611244565b73ffffffffffffffffffffffffffffffffffffffff163373ffffffffffffffffffffffffffffffffffffffff1614610b4357600c54341015610a9157600080fd5b6000606460115434610aa3919061364a565b610aad91906136d3565b9050610ab881611b68565b6000610ac2611244565b73ffffffffffffffffffffffffffffffffffffffff168234610ae49190613704565b604051610af090613769565b60006040518083038185875af1925050503d8060008114610b2d576040519150601f19603f3d011682016040523d82523d6000602084013e610b32565b606091505b5050905080610b4057600080fd5b50505b610b5933600183610b54919061377e565b611c04565b50565b600c5481565b6000600880549050905090565b60011515610b7b61126e565b151514610bbd576040517f08c379a0000000000000000000000000000000000000000000000000000000008152600401610bb4906134d7565b60405180910390fd5b610bce610bc8611aa7565b82611c22565b610c0d576040517f08c379a0000000000000000000000000000000000000000000000000000000008152600401610c0490613846565b60405180910390fd5b6000341115610cfc576000606460115434610c28919061364a565b610c3291906136d3565b9050610c3d81611b68565b60008473ffffffffffffffffffffffffffffffffffffffff168234610c629190613704565b604051610c6e90613769565b60006040518083038185875af1925050503d8060008114610cab576040519150601f19603f3d011682016040523d82523d6000602084013e610cb0565b606091505b5050905080610cbe57600080fd5b7f3f3483d0995db4c081e0101ef6753bef457833c20605cd871de61dcb48085a9a858534604051610cf193929190613866565b60405180910390a150505b610d07838383611d00565b505050565b6000610d1783611104565b8210610d58576040517f08c379a0000000000000000000000000000000000000000000000000000000008152600401610d4f9061390f565b60405180910390fd5b600660008473ffffffffffffffffffffffffffffffffffffffff1673ffffffffffffffffffffffffffffffffffffffff168152602001908152602001600020600083815260200190815260200160002054905092915050565b60115481565b60011515610dc361126e565b151514610e05576040517f08c379a0000000000000000000000000000000000000000000000000000000008152600401610dfc906134d7565b60405180910390fd5b6000341115610ef4576000606460115434610e20919061364a565b610e2a91906136d3565b9050610e3581611b68565b60008473ffffffffffffffffffffffffffffffffffffffff168234610e5a9190613704565b604051610e6690613769565b60006040518083038185875af1925050503d8060008114610ea3576040519150601f19603f3d011682016040523d82523d6000602084013e610ea8565b606091505b5050905080610eb657600080fd5b7f3f3483d0995db4c081e0101ef6753bef457833c20605cd871de61dcb48085a9a858534604051610ee993929190613866565b60405180910390a150505b610f0f838383604051806020016040528060008152506113c6565b505050565b601060009054906101000a900473ffffffffffffffffffffffffffffffffffffffff1681565b6000610f44610b62565b8210610f85576040517f08c379a0000000000000000000000000000000000000000000000000000000008152600401610f7c906139a1565b60405180910390fd5b60088281548110610f9957610f986139c1565b5b90600052602060002001549050919050565b610fb3611aa7565b73ffffffffffffffffffffffffffffffffffffffff16610fd1611244565b73ffffffffffffffffffffffffffffffffffffffff1614611027576040517f08c379a000000000000000000000000000000000000000000000000000000000815260040161101e90613a3c565b60405180910390fd5b80600e908051906020019061103d929190612c48565b5050565b600061104d600b611f5c565b905090565b6000806002600084815260200190815260200160002060009054906101000a900473ffffffffffffffffffffffffffffffffffffffff169050600073ffffffffffffffffffffffffffffffffffffffff168173ffffffffffffffffffffffffffffffffffffffff1614156110fb576040517f08c379a00000000000000000000000000000000000000000000000000000000081526004016110f290613ace565b60405180910390fd5b80915050919050565b60008073ffffffffffffffffffffffffffffffffffffffff168273ffffffffffffffffffffffffffffffffffffffff161415611175576040517f08c379a000000000000000000000000000000000000000000000000000000000815260040161116c90613b60565b60405180910390fd5b600360008373ffffffffffffffffffffffffffffffffffffffff1673ffffffffffffffffffffffffffffffffffffffff168152602001908152602001600020549050919050565b6111c4611aa7565b73ffffffffffffffffffffffffffffffffffffffff166111e2611244565b73ffffffffffffffffffffffffffffffffffffffff1614611238576040517f08c379a000000000000000000000000000000000000000000000000000000000815260040161122f90613a3c565b60405180910390fd5b6112426000611f6a565b565b6000600a60009054906101000a900473ffffffffffffffffffffffffffffffffffffffff16905090565b6000601260009054906101000a900460ff16905090565b601260009054906101000a900460ff1681565b6060600180546112a7906133c7565b80601f01602080910402602001604051908101604052809291908181526020018280546112d3906133c7565b80156113205780601f106112f557610100808354040283529160200191611320565b820191906000526020600020905b81548152906001019060200180831161130357829003601f168201915b5050505050905090565b611332611aa7565b73ffffffffffffffffffffffffffffffffffffffff16611350611244565b73ffffffffffffffffffffffffffffffffffffffff16146113a6576040517f08c379a000000000000000000000000000000000000000000000000000000000815260040161139d90613a3c565b60405180910390fd5b8060118190555050565b6113c26113bb611aa7565b8383612030565b5050565b600115156113d261126e565b151514611414576040517f08c379a000000000000000000000000000000000000000000000000000000000815260040161140b906134d7565b60405180910390fd5b61142561141f611aa7565b83611c22565b611464576040517f08c379a000000000000000000000000000000000000000000000000000000000815260040161145b90613846565b60405180910390fd5b600034111561155357600060646011543461147f919061364a565b61148991906136d3565b905061149481611b68565b60008573ffffffffffffffffffffffffffffffffffffffff1682346114b99190613704565b6040516114c590613769565b60006040518083038185875af1925050503d8060008114611502576040519150601f19603f3d011682016040523d82523d6000602084013e611507565b606091505b505090508061151557600080fd5b7f3f3483d0995db4c081e0101ef6753bef457833c20605cd871de61dcb48085a9a86863460405161154893929190613866565b60405180910390a150505b61155f8484848461219d565b50505050565b600f8054611572906133c7565b80601f016020809104026020016040519081016040528092919081815260200182805461159e906133c7565b80156115eb5780601f106115c0576101008083540402835291602001916115eb565b820191906000526020600020905b8154815290600101906020018083116115ce57829003601f168201915b505050505081565b60606115fe82611a3b565b61163d576040517f08c379a000000000000000000000000000000000000000000000000000000000815260040161163490613bf2565b60405180910390fd5b60006116476121f9565b905060008151116116675760405180602001604052806000815250611695565b806116718461228b565b600f60405160200161168593929190613ce2565b6040516020818303038152906040525b915050919050565b600d5481565b60006116ad611aa7565b73ffffffffffffffffffffffffffffffffffffffff166116cb611244565b73ffffffffffffffffffffffffffffffffffffffff1614611721576040517f08c379a000000000000000000000000000000000000000000000000000000000815260040161171890613a3c565b60405180910390fd5b601260009054906101000a900460ff1615611756576000601260006101000a81548160ff021916908315150217905550611772565b6001601260006101000a81548160ff0219169083151502179055505b7f40cec7445e6af82a2c1482720f9cde27ef6cc85136e8b7abd3efd8c6a0ee566f601260009054906101000a900460ff166040516117b09190612d9f565b60405180910390a1601260009054906101000a900460ff16905090565b6000600560008473ffffffffffffffffffffffffffffffffffffffff1673ffffffffffffffffffffffffffffffffffffffff16815260200190815260200160002060008373ffffffffffffffffffffffffffffffffffffffff1673ffffffffffffffffffffffffffffffffffffffff16815260200190815260200160002060009054906101000a900460ff16905092915050565b611869611aa7565b73ffffffffffffffffffffffffffffffffffffffff16611887611244565b73ffffffffffffffffffffffffffffffffffffffff16146118dd576040517f08c379a00000000000000000000000000000000000000000000000000000000081526004016118d490613a3c565b60405180910390fd5b600073ffffffffffffffffffffffffffffffffffffffff168173ffffffffffffffffffffffffffffffffffffffff16141561194d576040517f08c379a000000000000000000000000000000000000000000000000000000000815260040161194490613d85565b60405180910390fd5b61195681611f6a565b50565b60007f80ac58cd000000000000000000000000000000000000000000000000000000007bffffffffffffffffffffffffffffffffffffffffffffffffffffffff1916827bffffffffffffffffffffffffffffffffffffffffffffffffffffffff19161480611a2457507f5b5e139f000000000000000000000000000000000000000000000000000000007bffffffffffffffffffffffffffffffffffffffffffffffffffffffff1916827bffffffffffffffffffffffffffffffffffffffffffffffffffffffff1916145b80611a345750611a33826123ec565b5b9050919050565b60008073ffffffffffffffffffffffffffffffffffffffff166002600084815260200190815260200160002060009054906101000a900473ffffffffffffffffffffffffffffffffffffffff1673ffffffffffffffffffffffffffffffffffffffff1614159050919050565b600033905090565b816004600083815260200190815260200160002060006101000a81548173ffffffffffffffffffffffffffffffffffffffff021916908373ffffffffffffffffffffffffffffffffffffffff160217905550808273ffffffffffffffffffffffffffffffffffffffff16611b2283611052565b73ffffffffffffffffffffffffffffffffffffffff167f8c5be1e5ebec7d5bd14f71427d1e84f3dd0314c0f7b2291e5b200ac8c7c3b92560405160405180910390a45050565b6000601060009054906101000a900473ffffffffffffffffffffffffffffffffffffffff1673ffffffffffffffffffffffffffffffffffffffff1682604051611bb090613769565b60006040518083038185875af1925050503d8060008114611bed576040519150601f19603f3d011682016040523d82523d6000602084013e611bf2565b606091505b5050905080611c0057600080fd5b5050565b611c1e828260405180602001604052806000815250612456565b5050565b6000611c2d82611a3b565b611c6c576040517f08c379a0000000000000000000000000000000000000000000000000000000008152600401611c6390613e17565b60405180910390fd5b6000611c7783611052565b90508073ffffffffffffffffffffffffffffffffffffffff168473ffffffffffffffffffffffffffffffffffffffff161480611ce657508373ffffffffffffffffffffffffffffffffffffffff16611cce84610842565b73ffffffffffffffffffffffffffffffffffffffff16145b80611cf75750611cf681856117cd565b5b91505092915050565b8273ffffffffffffffffffffffffffffffffffffffff16611d2082611052565b73ffffffffffffffffffffffffffffffffffffffff1614611d76576040517f08c379a0000000000000000000000000000000000000000000000000000000008152600401611d6d90613ea9565b60405180910390fd5b600073ffffffffffffffffffffffffffffffffffffffff168273ffffffffffffffffffffffffffffffffffffffff161415611de6576040517f08c379a0000000000000000000000000000000000000000000000000000000008152600401611ddd90613f3b565b60405180910390fd5b611df18383836124b1565b611dfc600082611aaf565b6001600360008573ffffffffffffffffffffffffffffffffffffffff1673ffffffffffffffffffffffffffffffffffffffff1681526020019081526020016000206000828254611e4c9190613704565b925050819055506001600360008473ffffffffffffffffffffffffffffffffffffffff1673ffffffffffffffffffffffffffffffffffffffff1681526020019081526020016000206000828254611ea3919061377e565b92505081905550816002600083815260200190815260200160002060006101000a81548173ffffffffffffffffffffffffffffffffffffffff021916908373ffffffffffffffffffffffffffffffffffffffff160217905550808273ffffffffffffffffffffffffffffffffffffffff168473ffffffffffffffffffffffffffffffffffffffff167fddf252ad1be2c89b69c2b068fc378daa952ba7f163c4a11628f55a4df523b3ef60405160405180910390a4505050565b600081600001549050919050565b6000600a60009054906101000a900473ffffffffffffffffffffffffffffffffffffffff16905081600a60006101000a81548173ffffffffffffffffffffffffffffffffffffffff021916908373ffffffffffffffffffffffffffffffffffffffff1602179055508173ffffffffffffffffffffffffffffffffffffffff168173ffffffffffffffffffffffffffffffffffffffff167f8be0079c531659141344cd1fd0a4f28419497f9722a3daafe3b4186f6b6457e060405160405180910390a35050565b8173ffffffffffffffffffffffffffffffffffffffff168373ffffffffffffffffffffffffffffffffffffffff16141561209f576040517f08c379a000000000000000000000000000000000000000000000000000000000815260040161209690613fa7565b60405180910390fd5b80600560008573ffffffffffffffffffffffffffffffffffffffff1673ffffffffffffffffffffffffffffffffffffffff16815260200190815260200160002060008473ffffffffffffffffffffffffffffffffffffffff1673ffffffffffffffffffffffffffffffffffffffff16815260200190815260200160002060006101000a81548160ff0219169083151502179055508173ffffffffffffffffffffffffffffffffffffffff168373ffffffffffffffffffffffffffffffffffffffff167f17307eab39ab6107e8899845ad3d59bd9653f200f220920489ca2b5937696c31836040516121909190612d9f565b60405180910390a3505050565b6121a8848484611d00565b6121b4848484846125c5565b6121f3576040517f08c379a00000000000000000000000000000000000000000000000000000000081526004016121ea90614039565b60405180910390fd5b50505050565b6060600e8054612208906133c7565b80601f0160208091040260200160405190810160405280929190818152602001828054612234906133c7565b80156122815780601f1061225657610100808354040283529160200191612281565b820191906000526020600020905b81548152906001019060200180831161226457829003601f168201915b5050505050905090565b606060008214156122d3576040518060400160405280600181526020017f300000000000000000000000000000000000000000000000000000000000000081525090506123e7565b600082905060005b600082146123055780806122ee90614059565b915050600a826122fe91906136d3565b91506122db565b60008167ffffffffffffffff81111561232157612320613027565b5b6040519080825280601f01601f1916602001820160405280156123535781602001600182028036833780820191505090505b5090505b600085146123e05760018261236c9190613704565b9150600a8561237b91906140a2565b6030612387919061377e565b60f81b81838151811061239d5761239c6139c1565b5b60200101907effffffffffffffffffffffffffffffffffffffffffffffffffffffffffffff1916908160001a905350600a856123d991906136d3565b9450612357565b8093505050505b919050565b60007f01ffc9a7000000000000000000000000000000000000000000000000000000007bffffffffffffffffffffffffffffffffffffffffffffffffffffffff1916827bffffffffffffffffffffffffffffffffffffffffffffffffffffffff1916149050919050565b612460838361275c565b61246d60008484846125c5565b6124ac576040517f08c379a00000000000000000000000000000000000000000000000000000000081526004016124a390614039565b60405180910390fd5b505050565b6124bc83838361292a565b600073ffffffffffffffffffffffffffffffffffffffff168373ffffffffffffffffffffffffffffffffffffffff1614156124ff576124fa8161292f565b61253e565b8173ffffffffffffffffffffffffffffffffffffffff168373ffffffffffffffffffffffffffffffffffffffff161461253d5761253c8382612978565b5b5b600073ffffffffffffffffffffffffffffffffffffffff168273ffffffffffffffffffffffffffffffffffffffff1614156125815761257c81612ae5565b6125c0565b8273ffffffffffffffffffffffffffffffffffffffff168273ffffffffffffffffffffffffffffffffffffffff16146125bf576125be8282612bb6565b5b5b505050565b60006125e68473ffffffffffffffffffffffffffffffffffffffff16612c35565b1561274f578373ffffffffffffffffffffffffffffffffffffffff1663150b7a0261260f611aa7565b8786866040518563ffffffff1660e01b81526004016126319493929190614128565b602060405180830381600087803b15801561264b57600080fd5b505af192505050801561267c57506040513d601f19601f820116820180604052508101906126799190614189565b60015b6126ff573d80600081146126ac576040519150601f19603f3d011682016040523d82523d6000602084013e6126b1565b606091505b506000815114156126f7576040517f08c379a00000000000000000000000000000000000000000000000000000000081526004016126ee90614039565b60405180910390fd5b805181602001fd5b63150b7a0260e01b7bffffffffffffffffffffffffffffffffffffffffffffffffffffffff1916817bffffffffffffffffffffffffffffffffffffffffffffffffffffffff191614915050612754565b600190505b949350505050565b600073ffffffffffffffffffffffffffffffffffffffff168273ffffffffffffffffffffffffffffffffffffffff1614156127cc576040517f08c379a00000000000000000000000000000000000000000000000000000000081526004016127c390614202565b60405180910390fd5b6127d581611a3b565b15612815576040517f08c379a000000000000000000000000000000000000000000000000000000000815260040161280c9061426e565b60405180910390fd5b612821600083836124b1565b6001600360008473ffffffffffffffffffffffffffffffffffffffff1673ffffffffffffffffffffffffffffffffffffffff1681526020019081526020016000206000828254612871919061377e565b92505081905550816002600083815260200190815260200160002060006101000a81548173ffffffffffffffffffffffffffffffffffffffff021916908373ffffffffffffffffffffffffffffffffffffffff160217905550808273ffffffffffffffffffffffffffffffffffffffff16600073ffffffffffffffffffffffffffffffffffffffff167fddf252ad1be2c89b69c2b068fc378daa952ba7f163c4a11628f55a4df523b3ef60405160405180910390a45050565b505050565b6008805490506009600083815260200190815260200160002081905550600881908060018154018082558091505060019003906000526020600020016000909190919091505550565b6000600161298584611104565b61298f9190613704565b9050600060076000848152602001908152602001600020549050818114612a74576000600660008673ffffffffffffffffffffffffffffffffffffffff1673ffffffffffffffffffffffffffffffffffffffff168152602001908152602001600020600084815260200190815260200160002054905080600660008773ffffffffffffffffffffffffffffffffffffffff1673ffffffffffffffffffffffffffffffffffffffff168152602001908152602001600020600084815260200190815260200160002081905550816007600083815260200190815260200160002081905550505b6007600084815260200190815260200160002060009055600660008573ffffffffffffffffffffffffffffffffffffffff1673ffffffffffffffffffffffffffffffffffffffff16815260200190815260200160002060008381526020019081526020016000206000905550505050565b60006001600880549050612af99190613704565b9050600060096000848152602001908152602001600020549050600060088381548110612b2957612b286139c1565b5b906000526020600020015490508060088381548110612b4b57612b4a6139c1565b5b906000526020600020018190555081600960008381526020019081526020016000208190555060096000858152602001908152602001600020600090556008805480612b9a57612b9961428e565b5b6001900381819060005260206000200160009055905550505050565b6000612bc183611104565b905081600660008573ffffffffffffffffffffffffffffffffffffffff1673ffffffffffffffffffffffffffffffffffffffff168152602001908152602001600020600083815260200190815260200160002081905550806007600084815260200190815260200160002081905550505050565b600080823b905060008111915050919050565b828054612c54906133c7565b90600052602060002090601f016020900481019282612c765760008555612cbd565b82601f10612c8f57805160ff1916838001178555612cbd565b82800160010185558215612cbd579182015b82811115612cbc578251825591602001919060010190612ca1565b5b509050612cca9190612cce565b5090565b5b80821115612ce7576000816000905550600101612ccf565b5090565b6000604051905090565b600080fd5b600080fd5b60007fffffffff0000000000000000000000000000000000000000000000000000000082169050919050565b612d3481612cff565b8114612d3f57600080fd5b50565b600081359050612d5181612d2b565b92915050565b600060208284031215612d6d57612d6c612cf5565b5b6000612d7b84828501612d42565b91505092915050565b60008115159050919050565b612d9981612d84565b82525050565b6000602082019050612db46000830184612d90565b92915050565b600081519050919050565b600082825260208201905092915050565b60005b83811015612df4578082015181840152602081019050612dd9565b83811115612e03576000848401525b50505050565b6000601f19601f8301169050919050565b6000612e2582612dba565b612e2f8185612dc5565b9350612e3f818560208601612dd6565b612e4881612e09565b840191505092915050565b60006020820190508181036000830152612e6d8184612e1a565b905092915050565b6000819050919050565b612e8881612e75565b8114612e9357600080fd5b50565b600081359050612ea581612e7f565b92915050565b600060208284031215612ec157612ec0612cf5565b5b6000612ecf84828501612e96565b91505092915050565b600073ffffffffffffffffffffffffffffffffffffffff82169050919050565b6000612f0382612ed8565b9050919050565b612f1381612ef8565b82525050565b6000602082019050612f2e6000830184612f0a565b92915050565b612f3d81612ef8565b8114612f4857600080fd5b50565b600081359050612f5a81612f34565b92915050565b60008060408385031215612f7757612f76612cf5565b5b6000612f8585828601612f4b565b9250506020612f9685828601612e96565b9150509250929050565b612fa981612e75565b82525050565b6000602082019050612fc46000830184612fa0565b92915050565b600080600060608486031215612fe357612fe2612cf5565b5b6000612ff186828701612f4b565b935050602061300286828701612f4b565b925050604061301386828701612e96565b9150509250925092565b600080fd5b600080fd5b7f4e487b7100000000000000000000000000000000000000000000000000000000600052604160045260246000fd5b61305f82612e09565b810181811067ffffffffffffffff8211171561307e5761307d613027565b5b80604052505050565b6000613091612ceb565b905061309d8282613056565b919050565b600067ffffffffffffffff8211156130bd576130bc613027565b5b6130c682612e09565b9050602081019050919050565b82818337600083830152505050565b60006130f56130f0846130a2565b613087565b90508281526020810184848401111561311157613110613022565b5b61311c8482856130d3565b509392505050565b600082601f8301126131395761313861301d565b5b81356131498482602086016130e2565b91505092915050565b60006020828403121561316857613167612cf5565b5b600082013567ffffffffffffffff81111561318657613185612cfa565b5b61319284828501613124565b91505092915050565b6000602082840312156131b1576131b0612cf5565b5b60006131bf84828501612f4b565b91505092915050565b6131d181612d84565b81146131dc57600080fd5b50565b6000813590506131ee816131c8565b92915050565b6000806040838503121561320b5761320a612cf5565b5b600061321985828601612f4b565b925050602061322a858286016131df565b9150509250929050565b600067ffffffffffffffff82111561324f5761324e613027565b5b61325882612e09565b9050602081019050919050565b600061327861327384613234565b613087565b90508281526020810184848401111561329457613293613022565b5b61329f8482856130d3565b509392505050565b600082601f8301126132bc576132bb61301d565b5b81356132cc848260208601613265565b91505092915050565b600080600080608085870312156132ef576132ee612cf5565b5b60006132fd87828801612f4b565b945050602061330e87828801612f4b565b935050604061331f87828801612e96565b925050606085013567ffffffffffffffff8111156133405761333f612cfa565b5b61334c878288016132a7565b91505092959194509250565b6000806040838503121561336f5761336e612cf5565b5b600061337d85828601612f4b565b925050602061338e85828601612f4b565b9150509250929050565b7f4e487b7100000000000000000000000000000000000000000000000000000000600052602260045260246000fd5b600060028204905060018216806133df57607f821691505b602082108114156133f3576133f2613398565b5b50919050565b7f4552433732313a20617070726f76656420717565727920666f72206e6f6e657860008201527f697374656e7420746f6b656e0000000000000000000000000000000000000000602082015250565b6000613455602c83612dc5565b9150613460826133f9565b604082019050919050565b6000602082019050818103600083015261348481613448565b9050919050565b7f4d656d62657273686970733a206e6f74207472616e7366657261626c65000000600082015250565b60006134c1601d83612dc5565b91506134cc8261348b565b602082019050919050565b600060208201905081810360008301526134f0816134b4565b9050919050565b7f4552433732313a20617070726f76616c20746f2063757272656e74206f776e6560008201527f7200000000000000000000000000000000000000000000000000000000000000602082015250565b6000613553602183612dc5565b915061355e826134f7565b604082019050919050565b6000602082019050818103600083015261358281613546565b9050919050565b7f4552433732313a20617070726f76652063616c6c6572206973206e6f74206f7760008201527f6e6572206e6f7220617070726f76656420666f7220616c6c0000000000000000602082015250565b60006135e5603883612dc5565b91506135f082613589565b604082019050919050565b60006020820190508181036000830152613614816135d8565b9050919050565b7f4e487b7100000000000000000000000000000000000000000000000000000000600052601160045260246000fd5b600061365582612e75565b915061366083612e75565b9250817fffffffffffffffffffffffffffffffffffffffffffffffffffffffffffffffff04831182151516156136995761369861361b565b5b828202905092915050565b7f4e487b7100000000000000000000000000000000000000000000000000000000600052601260045260246000fd5b60006136de82612e75565b91506136e983612e75565b9250826136f9576136f86136a4565b5b828204905092915050565b600061370f82612e75565b915061371a83612e75565b92508282101561372d5761372c61361b565b5b828203905092915050565b600081905092915050565b50565b6000613753600083613738565b915061375e82613743565b600082019050919050565b600061377482613746565b9150819050919050565b600061378982612e75565b915061379483612e75565b9250827fffffffffffffffffffffffffffffffffffffffffffffffffffffffffffffffff038211156137c9576137c861361b565b5b828201905092915050565b7f4552433732313a207472616e736665722063616c6c6572206973206e6f74206f60008201527f776e6572206e6f7220617070726f766564000000000000000000000000000000602082015250565b6000613830603183612dc5565b915061383b826137d4565b604082019050919050565b6000602082019050818103600083015261385f81613823565b9050919050565b600060608201905061387b6000830186612f0a565b6138886020830185612f0a565b6138956040830184612fa0565b949350505050565b7f455243373231456e756d657261626c653a206f776e657220696e646578206f7560008201527f74206f6620626f756e6473000000000000000000000000000000000000000000602082015250565b60006138f9602b83612dc5565b91506139048261389d565b604082019050919050565b60006020820190508181036000830152613928816138ec565b9050919050565b7f455243373231456e756d657261626c653a20676c6f62616c20696e646578206f60008201527f7574206f6620626f756e64730000000000000000000000000000000000000000602082015250565b600061398b602c83612dc5565b91506139968261392f565b604082019050919050565b600060208201905081810360008301526139ba8161397e565b9050919050565b7f4e487b7100000000000000000000000000000000000000000000000000000000600052603260045260246000fd5b7f4f776e61626c653a2063616c6c6572206973206e6f7420746865206f776e6572600082015250565b6000613a26602083612dc5565b9150613a31826139f0565b602082019050919050565b60006020820190508181036000830152613a5581613a19565b9050919050565b7f4552433732313a206f776e657220717565727920666f72206e6f6e657869737460008201527f656e7420746f6b656e0000000000000000000000000000000000000000000000602082015250565b6000613ab8602983612dc5565b9150613ac382613a5c565b604082019050919050565b60006020820190508181036000830152613ae781613aab565b9050919050565b7f4552433732313a2062616c616e636520717565727920666f7220746865207a6560008201527f726f206164647265737300000000000000000000000000000000000000000000602082015250565b6000613b4a602a83612dc5565b9150613b5582613aee565b604082019050919050565b60006020820190508181036000830152613b7981613b3d565b9050919050565b7f4552433732314d657461646174613a2055524920717565727920666f72206e6f60008201527f6e6578697374656e7420746f6b656e0000000000000000000000000000000000602082015250565b6000613bdc602f83612dc5565b9150613be782613b80565b604082019050919050565b60006020820190508181036000830152613c0b81613bcf565b9050919050565b600081905092915050565b6000613c2882612dba565b613c328185613c12565b9350613c42818560208601612dd6565b80840191505092915050565b60008190508160005260206000209050919050565b60008154613c70816133c7565b613c7a8186613c12565b94506001821660008114613c955760018114613ca657613cd9565b60ff19831686528186019350613cd9565b613caf85613c4e565b60005b83811015613cd157815481890152600182019150602081019050613cb2565b838801955050505b50505092915050565b6000613cee8286613c1d565b9150613cfa8285613c1d565b9150613d068284613c63565b9150819050949350505050565b7f4f776e61626c653a206e6577206f776e657220697320746865207a65726f206160008201527f6464726573730000000000000000000000000000000000000000000000000000602082015250565b6000613d6f602683612dc5565b9150613d7a82613d13565b604082019050919050565b60006020820190508181036000830152613d9e81613d62565b9050919050565b7f4552433732313a206f70657261746f7220717565727920666f72206e6f6e657860008201527f697374656e7420746f6b656e0000000000000000000000000000000000000000602082015250565b6000613e01602c83612dc5565b9150613e0c82613da5565b604082019050919050565b60006020820190508181036000830152613e3081613df4565b9050919050565b7f4552433732313a207472616e73666572206f6620746f6b656e2074686174206960008201527f73206e6f74206f776e0000000000000000000000000000000000000000000000602082015250565b6000613e93602983612dc5565b9150613e9e82613e37565b604082019050919050565b60006020820190508181036000830152613ec281613e86565b9050919050565b7f4552433732313a207472616e7366657220746f20746865207a65726f2061646460008201527f7265737300000000000000000000000000000000000000000000000000000000602082015250565b6000613f25602483612dc5565b9150613f3082613ec9565b604082019050919050565b60006020820190508181036000830152613f5481613f18565b9050919050565b7f4552433732313a20617070726f766520746f2063616c6c657200000000000000600082015250565b6000613f91601983612dc5565b9150613f9c82613f5b565b602082019050919050565b60006020820190508181036000830152613fc081613f84565b9050919050565b7f4552433732313a207472616e7366657220746f206e6f6e20455243373231526560008201527f63656976657220696d706c656d656e7465720000000000000000000000000000602082015250565b6000614023603283612dc5565b915061402e82613fc7565b604082019050919050565b6000602082019050818103600083015261405281614016565b9050919050565b600061406482612e75565b91507fffffffffffffffffffffffffffffffffffffffffffffffffffffffffffffffff8214156140975761409661361b565b5b600182019050919050565b60006140ad82612e75565b91506140b883612e75565b9250826140c8576140c76136a4565b5b828206905092915050565b600081519050919050565b600082825260208201905092915050565b60006140fa826140d3565b61410481856140de565b9350614114818560208601612dd6565b61411d81612e09565b840191505092915050565b600060808201905061413d6000830187612f0a565b61414a6020830186612f0a565b6141576040830185612fa0565b818103606083015261416981846140ef565b905095945050505050565b60008151905061418381612d2b565b92915050565b60006020828403121561419f5761419e612cf5565b5b60006141ad84828501614174565b91505092915050565b7f4552433732313a206d696e7420746f20746865207a65726f2061646472657373600082015250565b60006141ec602083612dc5565b91506141f7826141b6565b602082019050919050565b6000602082019050818103600083015261421b816141df565b9050919050565b7f4552433732313a20746f6b656e20616c7265616479206d696e74656400000000600082015250565b6000614258601c83612dc5565b915061426382614222565b602082019050919050565b600060208201905081810360008301526142878161424b565b9050919050565b7f4e487b7100000000000000000000000000000000000000000000000000000000600052603160045260246000fdfea264697066735822122035fefe964849f5ba6416c586b746ece88fe77c047dfcf4d8cf3567da8fdb65f364736f6c63430008090033",
  "immutableReferences": {},
  "source": "// SPDX-License-Identifier: MIT\n\nimport \"./ERC721.sol\";\nimport \"./ERC721Enumerable.sol\";\nimport \"@openzeppelin/contracts/access/Ownable.sol\";\nimport {Counters} from \"@openzeppelin/contracts/utils/Counters.sol\";\n\npragma solidity >=0.7.0 <0.9.0;\n\ncontract NFT is ERC721Enumerable, Ownable {\n\n//----\n    using Counters for Counters.Counter;\n    Counters.Counter internal _counter;\n//----\n\n\n    using Strings for uint256;\n\n    uint256 public cost = 1 ether;\n    uint256 public maxSupply = 20;\n\n    string baseURI;\n    string public baseExtension = \".json\";\n\n    address public artist;\n    uint256 public royalityFee;\n\n\n    bool public transferable_;\n\n    // Events\n    event Sale(address from, address to, uint256 value);\n\n    event ToggleTransferable(bool transferable);\n\n    constructor(\n        string memory _name,\n        string memory _symbol,\n        string memory _initBaseURI,\n        uint256 _royalityFee,\n        address _artist,\n        bool _transferable\n    ) ERC721(_name, _symbol) {\n        setBaseURI(_initBaseURI);\n        royalityFee = _royalityFee;\n        artist = _artist;\n        transferable_ = _transferable;\n    }\n\n\n\n    // External functions\n    function toggleTransferable() external onlyOwner returns (bool) {\n        if (transferable_) {\n            transferable_ = false;\n        } else {\n            transferable_ = true;\n        }\n        emit ToggleTransferable(transferable_);\n        return transferable_;\n    }\n\n\n    // Public functions\n    function transferable() public view returns (bool) {\n        return transferable_;\n    }\n\n    function mint() public payable {\n        uint256 supply = totalSupply();\n        require(supply <= maxSupply);\n\n        if (msg.sender != owner()) {\n            require(msg.value >= cost);\n\n            // Pay royality to artist, and remaining to deployer of contract\n\n            uint256 royality = (msg.value * royalityFee) / 100;\n            _payRoyality(royality);\n\n            (bool success2, ) = payable(owner()).call{\n                value: (msg.value - royality)\n            }(\"\");\n            require(success2);\n        }\n\n        _safeMint(msg.sender, supply + 1);\n    }\n\n    function tokenURI(uint256 tokenId)\n        public\n        view\n        virtual\n        override\n        returns (string memory)\n    {\n        require(\n            _exists(tokenId),\n            \"ERC721Metadata: URI query for nonexistent token\"\n        );\n\n        string memory currentBaseURI = _baseURI();\n        return\n            bytes(currentBaseURI).length > 0\n                ? string(\n                    abi.encodePacked(\n                        currentBaseURI,\n                        tokenId.toString(),\n                        baseExtension\n                    )\n                )\n                : \"\";\n    }\n\n\n//___________________________________________________\n    function nextId() public view returns (uint256) {\n        return _counter.current();\n    }\n\n\n    // Added isTransferable only\n    function approve(address to, uint256 tokenId)\n        public\n        override\n        isTransferable\n    {\n        //_isApprovedOrOwner(_msgSender(), tokenId),\n        address owner = ERC721.ownerOf(tokenId);\n        require(to != owner, \"ERC721: approval to current owner\");\n\n        require(\n            _msgSender() == owner || isApprovedForAll(owner, _msgSender()),\n            \"ERC721: approve caller is not owner nor approved for all\"\n        );\n\n        _approve(to, tokenId);\n    }\n//___________________________________________________\n\n\n    // Added isTransferable only\n    function transferFrom(\n        address from,\n        address to,\n        uint256 tokenId\n    ) public payable override isTransferable{\n        require(\n            _isApprovedOrOwner(_msgSender(), tokenId),\n            \"ERC721: transfer caller is not owner nor approved\"\n        );\n\n        if (msg.value > 0) {\n            uint256 royality = (msg.value * royalityFee) / 100;\n            _payRoyality(royality);\n\n            (bool success2, ) = payable(from).call{value: msg.value - royality}(\n                \"\"\n            );\n            require(success2);\n\n            emit Sale(from, to, msg.value);\n        }\n\n        _transfer(from, to, tokenId);\n    }\n\n    // Added isTransferable only\n    function safeTransferFrom(\n        address from,\n        address to,\n        uint256 tokenId\n    ) public payable override isTransferable{\n        if (msg.value > 0) {\n            uint256 royality = (msg.value * royalityFee) / 100;\n            _payRoyality(royality);\n\n            (bool success2, ) = payable(from).call{value: msg.value - royality}(\n                \"\"\n            );\n            require(success2);\n\n            emit Sale(from, to, msg.value);\n        }\n\n        safeTransferFrom(from, to, tokenId, \"\");\n    }\n\n    // Added isTransferable only\n    function safeTransferFrom(\n        address from,\n        address to,\n        uint256 tokenId,\n        bytes memory _data\n    ) public payable override isTransferable {\n        require(\n            _isApprovedOrOwner(_msgSender(), tokenId),\n            \"ERC721: transfer caller is not owner nor approved\"\n        );\n\n        if (msg.value > 0) {\n            uint256 royality = (msg.value * royalityFee) / 100;\n            _payRoyality(royality);\n\n            (bool success2, ) = payable(from).call{value: msg.value - royality}(\n                \"\"\n            );\n            require(success2);\n\n            emit Sale(from, to, msg.value);\n        }\n\n        _safeTransfer(from, to, tokenId, _data);\n    }\n\n    // Internal functions\n    function _baseURI() internal view virtual override returns (string memory) {\n        return baseURI;\n    }\n\n    function _payRoyality(uint256 _royalityFee) internal {\n        (bool success1, ) = payable(artist).call{value: _royalityFee}(\"\");\n        require(success1);\n    }\n\n    // Owner functions\n    function setBaseURI(string memory _newBaseURI) public onlyOwner {\n        baseURI = _newBaseURI;\n    }\n\n    function setRoyalityFee(uint256 _royalityFee) public onlyOwner {\n        royalityFee = _royalityFee;\n    }\n\n    // Modifiers\n    modifier isTransferable() {\n        require(transferable() == true, \"Memberships: not transferable\");\n        _;\n    }\n}\n",
  "sourcePath": "/home/dex/smart-contracts/creatorhelp/contracts/NFT.sol",
  "compiler": {
    "name": "solc",
    "version": "0.8.9+commit.e5eed63a.Emscripten.clang"
  },
  "schemaVersion": "3.4.4",
  "updatedAt": "2022-01-26T14:55:41.296Z",
  "networkType": "ethereum",
  "devdoc": {
    "kind": "dev",
    "methods": {
      "approve(address,uint256)": {
        "details": "See {IERC721-approve}."
      },
      "balanceOf(address)": {
        "details": "See {IERC721-balanceOf}."
      },
      "getApproved(uint256)": {
        "details": "See {IERC721-getApproved}."
      },
      "isApprovedForAll(address,address)": {
        "details": "See {IERC721-isApprovedForAll}."
      },
      "name()": {
        "details": "See {IERC721Metadata-name}."
      },
      "owner()": {
        "details": "Returns the address of the current owner."
      },
      "ownerOf(uint256)": {
        "details": "See {IERC721-ownerOf}."
      },
      "renounceOwnership()": {
        "details": "Leaves the contract without owner. It will not be possible to call `onlyOwner` functions anymore. Can only be called by the current owner. NOTE: Renouncing ownership will leave the contract without an owner, thereby removing any functionality that is only available to the owner."
      },
      "safeTransferFrom(address,address,uint256)": {
        "details": "See {IERC721-safeTransferFrom}."
      },
      "safeTransferFrom(address,address,uint256,bytes)": {
        "details": "See {IERC721-safeTransferFrom}."
      },
      "setApprovalForAll(address,bool)": {
        "details": "See {IERC721-setApprovalForAll}."
      },
      "supportsInterface(bytes4)": {
        "details": "See {IERC165-supportsInterface}."
      },
      "symbol()": {
        "details": "See {IERC721Metadata-symbol}."
      },
      "tokenByIndex(uint256)": {
        "details": "See {IERC721Enumerable-tokenByIndex}."
      },
      "tokenOfOwnerByIndex(address,uint256)": {
        "details": "See {IERC721Enumerable-tokenOfOwnerByIndex}."
      },
      "tokenURI(uint256)": {
        "details": "See {IERC721Metadata-tokenURI}."
      },
      "totalSupply()": {
        "details": "See {IERC721Enumerable-totalSupply}."
      },
      "transferFrom(address,address,uint256)": {
        "details": "See {IERC721-transferFrom}."
      },
      "transferOwnership(address)": {
        "details": "Transfers ownership of the contract to a new account (`newOwner`). Can only be called by the current owner."
      }
    },
    "version": 1
  },
  "userdoc": {
    "kind": "user",
    "methods": {},
    "version": 1
  }
}