{
  "contractName": "NFT",
  "abi": [
    {
      "inputs": [
        {
          "internalType": "string",
          "name": "_name",
          "type": "string"
        },
        {
          "internalType": "string",
          "name": "_symbol",
          "type": "string"
        },
        {
          "internalType": "string",
          "name": "_initBaseURI",
          "type": "string"
        },
        {
          "internalType": "uint256",
          "name": "_royalityFee",
          "type": "uint256"
        },
        {
          "internalType": "address",
          "name": "_artist",
          "type": "address"
        },
        {
          "internalType": "bool",
          "name": "_transferable",
          "type": "bool"
        }
      ],
      "stateMutability": "nonpayable",
      "type": "constructor"
    },
    {
      "anonymous": false,
      "inputs": [
        {
          "indexed": true,
          "internalType": "address",
          "name": "owner",
          "type": "address"
        },
        {
          "indexed": true,
          "internalType": "address",
          "name": "approved",
          "type": "address"
        },
        {
          "indexed": true,
          "internalType": "uint256",
          "name": "tokenId",
          "type": "uint256"
        }
      ],
      "name": "Approval",
      "type": "event"
    },
    {
      "anonymous": false,
      "inputs": [
        {
          "indexed": true,
          "internalType": "address",
          "name": "owner",
          "type": "address"
        },
        {
          "indexed": true,
          "internalType": "address",
          "name": "operator",
          "type": "address"
        },
        {
          "indexed": false,
          "internalType": "bool",
          "name": "approved",
          "type": "bool"
        }
      ],
      "name": "ApprovalForAll",
      "type": "event"
    },
    {
      "anonymous": false,
      "inputs": [
        {
          "indexed": true,
          "internalType": "address",
          "name": "previousOwner",
          "type": "address"
        },
        {
          "indexed": true,
          "internalType": "address",
          "name": "newOwner",
          "type": "address"
        }
      ],
      "name": "OwnershipTransferred",
      "type": "event"
    },
    {
      "anonymous": false,
      "inputs": [
        {
          "indexed": false,
          "internalType": "address",
          "name": "from",
          "type": "address"
        },
        {
          "indexed": false,
          "internalType": "address",
          "name": "to",
          "type": "address"
        },
        {
          "indexed": false,
          "internalType": "uint256",
          "name": "value",
          "type": "uint256"
        }
      ],
      "name": "Sale",
      "type": "event"
    },
    {
      "anonymous": false,
      "inputs": [
        {
          "indexed": false,
          "internalType": "bool",
          "name": "transferable",
          "type": "bool"
        }
      ],
      "name": "ToggleTransferable",
      "type": "event"
    },
    {
      "anonymous": false,
      "inputs": [
        {
          "indexed": true,
          "internalType": "address",
          "name": "from",
          "type": "address"
        },
        {
          "indexed": true,
          "internalType": "address",
          "name": "to",
          "type": "address"
        },
        {
          "indexed": true,
          "internalType": "uint256",
          "name": "tokenId",
          "type": "uint256"
        }
      ],
      "name": "Transfer",
      "type": "event"
    },
    {
      "inputs": [],
      "name": "artist",
      "outputs": [
        {
          "internalType": "address",
          "name": "",
          "type": "address"
        }
      ],
      "stateMutability": "view",
      "type": "function",
      "constant": true
    },
    {
      "inputs": [
        {
          "internalType": "address",
          "name": "owner",
          "type": "address"
        }
      ],
      "name": "balanceOf",
      "outputs": [
        {
          "internalType": "uint256",
          "name": "",
          "type": "uint256"
        }
      ],
      "stateMutability": "view",
      "type": "function",
      "constant": true
    },
    {
      "inputs": [],
      "name": "baseExtension",
      "outputs": [
        {
          "internalType": "string",
          "name": "",
          "type": "string"
        }
      ],
      "stateMutability": "view",
      "type": "function",
      "constant": true
    },
    {
      "inputs": [],
      "name": "cost",
      "outputs": [
        {
          "internalType": "uint256",
          "name": "",
          "type": "uint256"
        }
      ],
      "stateMutability": "view",
      "type": "function",
      "constant": true
    },
    {
      "inputs": [
        {
          "internalType": "uint256",
          "name": "tokenId",
          "type": "uint256"
        }
      ],
      "name": "getApproved",
      "outputs": [
        {
          "internalType": "address",
          "name": "",
          "type": "address"
        }
      ],
      "stateMutability": "view",
      "type": "function",
      "constant": true
    },
    {
      "inputs": [
        {
          "internalType": "address",
          "name": "owner",
          "type": "address"
        },
        {
          "internalType": "address",
          "name": "operator",
          "type": "address"
        }
      ],
      "name": "isApprovedForAll",
      "outputs": [
        {
          "internalType": "bool",
          "name": "",
          "type": "bool"
        }
      ],
      "stateMutability": "view",
      "type": "function",
      "constant": true
    },
    {
      "inputs": [],
      "name": "maxSupply",
      "outputs": [
        {
          "internalType": "uint256",
          "name": "",
          "type": "uint256"
        }
      ],
      "stateMutability": "view",
      "type": "function",
      "constant": true
    },
    {
      "inputs": [],
      "name": "name",
      "outputs": [
        {
          "internalType": "string",
          "name": "",
          "type": "string"
        }
      ],
      "stateMutability": "view",
      "type": "function",
      "constant": true
    },
    {
      "inputs": [],
      "name": "owner",
      "outputs": [
        {
          "internalType": "address",
          "name": "",
          "type": "address"
        }
      ],
      "stateMutability": "view",
      "type": "function",
      "constant": true
    },
    {
      "inputs": [
        {
          "internalType": "uint256",
          "name": "tokenId",
          "type": "uint256"
        }
      ],
      "name": "ownerOf",
      "outputs": [
        {
          "internalType": "address",
          "name": "",
          "type": "address"
        }
      ],
      "stateMutability": "view",
      "type": "function",
      "constant": true
    },
    {
      "inputs": [],
      "name": "renounceOwnership",
      "outputs": [],
      "stateMutability": "nonpayable",
      "type": "function"
    },
    {
      "inputs": [],
      "name": "royalityFee",
      "outputs": [
        {
          "internalType": "uint256",
          "name": "",
          "type": "uint256"
        }
      ],
      "stateMutability": "view",
      "type": "function",
      "constant": true
    },
    {
      "inputs": [
        {
          "internalType": "address",
          "name": "operator",
          "type": "address"
        },
        {
          "internalType": "bool",
          "name": "approved",
          "type": "bool"
        }
      ],
      "name": "setApprovalForAll",
      "outputs": [],
      "stateMutability": "nonpayable",
      "type": "function"
    },
    {
      "inputs": [
        {
          "internalType": "bytes4",
          "name": "interfaceId",
          "type": "bytes4"
        }
      ],
      "name": "supportsInterface",
      "outputs": [
        {
          "internalType": "bool",
          "name": "",
          "type": "bool"
        }
      ],
      "stateMutability": "view",
      "type": "function",
      "constant": true
    },
    {
      "inputs": [],
      "name": "symbol",
      "outputs": [
        {
          "internalType": "string",
          "name": "",
          "type": "string"
        }
      ],
      "stateMutability": "view",
      "type": "function",
      "constant": true
    },
    {
      "inputs": [
        {
          "internalType": "uint256",
          "name": "index",
          "type": "uint256"
        }
      ],
      "name": "tokenByIndex",
      "outputs": [
        {
          "internalType": "uint256",
          "name": "",
          "type": "uint256"
        }
      ],
      "stateMutability": "view",
      "type": "function",
      "constant": true
    },
    {
      "inputs": [
        {
          "internalType": "address",
          "name": "owner",
          "type": "address"
        },
        {
          "internalType": "uint256",
          "name": "index",
          "type": "uint256"
        }
      ],
      "name": "tokenOfOwnerByIndex",
      "outputs": [
        {
          "internalType": "uint256",
          "name": "",
          "type": "uint256"
        }
      ],
      "stateMutability": "view",
      "type": "function",
      "constant": true
    },
    {
      "inputs": [],
      "name": "totalSupply",
      "outputs": [
        {
          "internalType": "uint256",
          "name": "",
          "type": "uint256"
        }
      ],
      "stateMutability": "view",
      "type": "function",
      "constant": true
    },
    {
      "inputs": [
        {
          "internalType": "address",
          "name": "newOwner",
          "type": "address"
        }
      ],
      "name": "transferOwnership",
      "outputs": [],
      "stateMutability": "nonpayable",
      "type": "function"
    },
    {
      "inputs": [],
      "name": "transferable_",
      "outputs": [
        {
          "internalType": "bool",
          "name": "",
          "type": "bool"
        }
      ],
      "stateMutability": "view",
      "type": "function",
      "constant": true
    },
    {
      "inputs": [],
      "name": "toggleTransferable",
      "outputs": [
        {
          "internalType": "bool",
          "name": "",
          "type": "bool"
        }
      ],
      "stateMutability": "nonpayable",
      "type": "function"
    },
    {
      "inputs": [],
      "name": "transferable",
      "outputs": [
        {
          "internalType": "bool",
          "name": "",
          "type": "bool"
        }
      ],
      "stateMutability": "view",
      "type": "function",
      "constant": true
    },
    {
      "inputs": [],
      "name": "mint",
      "outputs": [],
      "stateMutability": "payable",
      "type": "function",
      "payable": true
    },
    {
      "inputs": [
        {
          "internalType": "uint256",
          "name": "tokenId",
          "type": "uint256"
        }
      ],
      "name": "tokenURI",
      "outputs": [
        {
          "internalType": "string",
          "name": "",
          "type": "string"
        }
      ],
      "stateMutability": "view",
      "type": "function",
      "constant": true
    },
    {
      "inputs": [
        {
          "internalType": "address",
          "name": "to",
          "type": "address"
        },
        {
          "internalType": "uint256",
          "name": "tokenId",
          "type": "uint256"
        }
      ],
      "name": "approve",
      "outputs": [],
      "stateMutability": "nonpayable",
      "type": "function"
    },
    {
      "inputs": [
        {
          "internalType": "address",
          "name": "from",
          "type": "address"
        },
        {
          "internalType": "address",
          "name": "to",
          "type": "address"
        },
        {
          "internalType": "uint256",
          "name": "tokenId",
          "type": "uint256"
        }
      ],
      "name": "transferFrom",
      "outputs": [],
      "stateMutability": "payable",
      "type": "function",
      "payable": true
    },
    {
      "inputs": [
        {
          "internalType": "address",
          "name": "from",
          "type": "address"
        },
        {
          "internalType": "address",
          "name": "to",
          "type": "address"
        },
        {
          "internalType": "uint256",
          "name": "tokenId",
          "type": "uint256"
        }
      ],
      "name": "safeTransferFrom",
      "outputs": [],
      "stateMutability": "payable",
      "type": "function",
      "payable": true
    },
    {
      "inputs": [
        {
          "internalType": "address",
          "name": "from",
          "type": "address"
        },
        {
          "internalType": "address",
          "name": "to",
          "type": "address"
        },
        {
          "internalType": "uint256",
          "name": "tokenId",
          "type": "uint256"
        },
        {
          "internalType": "bytes",
          "name": "_data",
          "type": "bytes"
        }
      ],
      "name": "safeTransferFrom",
      "outputs": [],
      "stateMutability": "payable",
      "type": "function",
      "payable": true
    },
    {
      "inputs": [
        {
          "internalType": "string",
          "name": "_newBaseURI",
          "type": "string"
        }
      ],
      "name": "setBaseURI",
      "outputs": [],
      "stateMutability": "nonpayable",
      "type": "function"
    },
    {
      "inputs": [
        {
          "internalType": "uint256",
          "name": "_royalityFee",
          "type": "uint256"
        }
      ],
      "name": "setRoyalityFee",
      "outputs": [],
      "stateMutability": "nonpayable",
      "type": "function"
    }
  ],
  "bytecode": "0x6080604052670de0b6b3a7640000600b556014600c556040518060400160405280600581526020017f2e6a736f6e000000000000000000000000000000000000000000000000000000815250600e9080519060200190620000629291906200030e565b503480156200007057600080fd5b5060405162004ac738038062004ac7833981810160405281019062000096919062000638565b85858160009080519060200190620000b09291906200030e565b508060019080519060200190620000c99291906200030e565b505050620000ec620000e06200016b60201b60201c565b6200017360201b60201c565b620000fd846200023960201b60201c565b8260108190555081600f60006101000a81548173ffffffffffffffffffffffffffffffffffffffff021916908373ffffffffffffffffffffffffffffffffffffffff16021790555080601160006101000a81548160ff02191690831515021790555050505050505062000819565b600033905090565b6000600a60009054906101000a900473ffffffffffffffffffffffffffffffffffffffff16905081600a60006101000a81548173ffffffffffffffffffffffffffffffffffffffff021916908373ffffffffffffffffffffffffffffffffffffffff1602179055508173ffffffffffffffffffffffffffffffffffffffff168173ffffffffffffffffffffffffffffffffffffffff167f8be0079c531659141344cd1fd0a4f28419497f9722a3daafe3b4186f6b6457e060405160405180910390a35050565b620002496200016b60201b60201c565b73ffffffffffffffffffffffffffffffffffffffff166200026f620002e460201b60201c565b73ffffffffffffffffffffffffffffffffffffffff1614620002c8576040517f08c379a0000000000000000000000000000000000000000000000000000000008152600401620002bf9062000792565b60405180910390fd5b80600d9080519060200190620002e09291906200030e565b5050565b6000600a60009054906101000a900473ffffffffffffffffffffffffffffffffffffffff16905090565b8280546200031c90620007e3565b90600052602060002090601f0160209004810192826200034057600085556200038c565b82601f106200035b57805160ff19168380011785556200038c565b828001600101855582156200038c579182015b828111156200038b5782518255916020019190600101906200036e565b5b5090506200039b91906200039f565b5090565b5b80821115620003ba576000816000905550600101620003a0565b5090565b6000604051905090565b600080fd5b600080fd5b600080fd5b600080fd5b6000601f19601f8301169050919050565b7f4e487b7100000000000000000000000000000000000000000000000000000000600052604160045260246000fd5b6200042782620003dc565b810181811067ffffffffffffffff82111715620004495762000448620003ed565b5b80604052505050565b60006200045e620003be565b90506200046c82826200041c565b919050565b600067ffffffffffffffff8211156200048f576200048e620003ed565b5b6200049a82620003dc565b9050602081019050919050565b60005b83811015620004c7578082015181840152602081019050620004aa565b83811115620004d7576000848401525b50505050565b6000620004f4620004ee8462000471565b62000452565b905082815260208101848484011115620005135762000512620003d7565b5b62000520848285620004a7565b509392505050565b600082601f83011262000540576200053f620003d2565b5b815162000552848260208601620004dd565b91505092915050565b6000819050919050565b62000570816200055b565b81146200057c57600080fd5b50565b600081519050620005908162000565565b92915050565b600073ffffffffffffffffffffffffffffffffffffffff82169050919050565b6000620005c38262000596565b9050919050565b620005d581620005b6565b8114620005e157600080fd5b50565b600081519050620005f581620005ca565b92915050565b60008115159050919050565b6200061281620005fb565b81146200061e57600080fd5b50565b600081519050620006328162000607565b92915050565b60008060008060008060c08789031215620006585762000657620003c8565b5b600087015167ffffffffffffffff811115620006795762000678620003cd565b5b6200068789828a0162000528565b965050602087015167ffffffffffffffff811115620006ab57620006aa620003cd565b5b620006b989828a0162000528565b955050604087015167ffffffffffffffff811115620006dd57620006dc620003cd565b5b620006eb89828a0162000528565b9450506060620006fe89828a016200057f565b93505060806200071189828a01620005e4565b92505060a06200072489828a0162000621565b9150509295509295509295565b600082825260208201905092915050565b7f4f776e61626c653a2063616c6c6572206973206e6f7420746865206f776e6572600082015250565b60006200077a60208362000731565b9150620007878262000742565b602082019050919050565b60006020820190508181036000830152620007ad816200076b565b9050919050565b7f4e487b7100000000000000000000000000000000000000000000000000000000600052602260045260246000fd5b60006002820490506001821680620007fc57607f821691505b60208210811415620008135762000812620007b4565b5b50919050565b61429e80620008296000396000f3fe6080604052600436106101cd5760003560e01c806370a08231116100f7578063a22cb46511610095578063d5abeb0111610064578063d5abeb0114610644578063d6bfc22f1461066f578063e985e9c51461069a578063f2fde38b146106d7576101cd565b8063a22cb46514610597578063b88d4fde146105c0578063c6682862146105dc578063c87b56dd14610607576101cd565b806392ff0d31116100d157806392ff0d31146104ed5780639395b7281461051857806395d89b411461054357806398f246821461056e576101cd565b806370a082311461046e578063715018a6146104ab5780638da5cb5b146104c2576101cd565b806323b872dd1161016f57806343bc16121161013e57806343bc1612146103a05780634f6ccce7146103cb57806355f804b3146104085780636352211e14610431576101cd565b806323b872dd146103005780632f745c591461031c578063326bb4ad1461035957806342842e0e14610384576101cd565b8063095ea7b3116101ab578063095ea7b3146102775780631249c58b146102a057806313faede6146102aa57806318160ddd146102d5576101cd565b806301ffc9a7146101d257806306fdde031461020f578063081812fc1461023a575b600080fd5b3480156101de57600080fd5b506101f960048036038101906101f49190612d02565b610700565b6040516102069190612d4a565b60405180910390f35b34801561021b57600080fd5b5061022461077a565b6040516102319190612dfe565b60405180910390f35b34801561024657600080fd5b50610261600480360381019061025c9190612e56565b61080c565b60405161026e9190612ec4565b60405180910390f35b34801561028357600080fd5b5061029e60048036038101906102999190612f0b565b610891565b005b6102a86109f7565b005b3480156102b657600080fd5b506102bf610b26565b6040516102cc9190612f5a565b60405180910390f35b3480156102e157600080fd5b506102ea610b2c565b6040516102f79190612f5a565b60405180910390f35b61031a60048036038101906103159190612f75565b610b39565b005b34801561032857600080fd5b50610343600480360381019061033e9190612f0b565b610cd6565b6040516103509190612f5a565b60405180910390f35b34801561036557600080fd5b5061036e610d7b565b60405161037b9190612f5a565b60405180910390f35b61039e60048036038101906103999190612f75565b610d81565b005b3480156103ac57600080fd5b506103b5610ede565b6040516103c29190612ec4565b60405180910390f35b3480156103d757600080fd5b506103f260048036038101906103ed9190612e56565b610f04565b6040516103ff9190612f5a565b60405180910390f35b34801561041457600080fd5b5061042f600480360381019061042a91906130fd565b610f75565b005b34801561043d57600080fd5b5061045860048036038101906104539190612e56565b61100b565b6040516104659190612ec4565b60405180910390f35b34801561047a57600080fd5b5061049560048036038101906104909190613146565b6110bd565b6040516104a29190612f5a565b60405180910390f35b3480156104b757600080fd5b506104c0611175565b005b3480156104ce57600080fd5b506104d76111fd565b6040516104e49190612ec4565b60405180910390f35b3480156104f957600080fd5b50610502611227565b60405161050f9190612d4a565b60405180910390f35b34801561052457600080fd5b5061052d61123e565b60405161053a9190612d4a565b60405180910390f35b34801561054f57600080fd5b50610558611251565b6040516105659190612dfe565b60405180910390f35b34801561057a57600080fd5b5061059560048036038101906105909190612e56565b6112e3565b005b3480156105a357600080fd5b506105be60048036038101906105b9919061319f565b611369565b005b6105da60048036038101906105d59190613280565b61137f565b005b3480156105e857600080fd5b506105f161151e565b6040516105fe9190612dfe565b60405180910390f35b34801561061357600080fd5b5061062e60048036038101906106299190612e56565b6115ac565b60405161063b9190612dfe565b60405180910390f35b34801561065057600080fd5b50610659611656565b6040516106669190612f5a565b60405180910390f35b34801561067b57600080fd5b5061068461165c565b6040516106919190612d4a565b60405180910390f35b3480156106a657600080fd5b506106c160048036038101906106bc9190613303565b611786565b6040516106ce9190612d4a565b60405180910390f35b3480156106e357600080fd5b506106fe60048036038101906106f99190613146565b61181a565b005b60007f780e9d63000000000000000000000000000000000000000000000000000000007bffffffffffffffffffffffffffffffffffffffffffffffffffffffff1916827bffffffffffffffffffffffffffffffffffffffffffffffffffffffff19161480610773575061077282611912565b5b9050919050565b60606000805461078990613372565b80601f01602080910402602001604051908101604052809291908181526020018280546107b590613372565b80156108025780601f106107d757610100808354040283529160200191610802565b820191906000526020600020905b8154815290600101906020018083116107e557829003601f168201915b5050505050905090565b6000610817826119f4565b610856576040517f08c379a000000000000000000000000000000000000000000000000000000000815260040161084d90613416565b60405180910390fd5b6004600083815260200190815260200160002060009054906101000a900473ffffffffffffffffffffffffffffffffffffffff169050919050565b6001151561089d611227565b1515146108df576040517f08c379a00000000000000000000000000000000000000000000000000000000081526004016108d690613482565b60405180910390fd5b60006108ea8261100b565b90508073ffffffffffffffffffffffffffffffffffffffff168373ffffffffffffffffffffffffffffffffffffffff16141561095b576040517f08c379a000000000000000000000000000000000000000000000000000000000815260040161095290613514565b60405180910390fd5b8073ffffffffffffffffffffffffffffffffffffffff1661097a611a60565b73ffffffffffffffffffffffffffffffffffffffff1614806109a957506109a8816109a3611a60565b611786565b5b6109e8576040517f08c379a00000000000000000000000000000000000000000000000000000000081526004016109df906135a6565b60405180910390fd5b6109f28383611a68565b505050565b6000610a01610b2c565b9050600c54811115610a1257600080fd5b610a1a6111fd565b73ffffffffffffffffffffffffffffffffffffffff163373ffffffffffffffffffffffffffffffffffffffff1614610b0d57600b54341015610a5b57600080fd5b6000606460105434610a6d91906135f5565b610a77919061367e565b9050610a8281611b21565b6000610a8c6111fd565b73ffffffffffffffffffffffffffffffffffffffff168234610aae91906136af565b604051610aba90613714565b60006040518083038185875af1925050503d8060008114610af7576040519150601f19603f3d011682016040523d82523d6000602084013e610afc565b606091505b5050905080610b0a57600080fd5b50505b610b2333600183610b1e9190613729565b611bbd565b50565b600b5481565b6000600880549050905090565b60011515610b45611227565b151514610b87576040517f08c379a0000000000000000000000000000000000000000000000000000000008152600401610b7e90613482565b60405180910390fd5b610b98610b92611a60565b82611bdb565b610bd7576040517f08c379a0000000000000000000000000000000000000000000000000000000008152600401610bce906137f1565b60405180910390fd5b6000341115610cc6576000606460105434610bf291906135f5565b610bfc919061367e565b9050610c0781611b21565b60008473ffffffffffffffffffffffffffffffffffffffff168234610c2c91906136af565b604051610c3890613714565b60006040518083038185875af1925050503d8060008114610c75576040519150601f19603f3d011682016040523d82523d6000602084013e610c7a565b606091505b5050905080610c8857600080fd5b7f3f3483d0995db4c081e0101ef6753bef457833c20605cd871de61dcb48085a9a858534604051610cbb93929190613811565b60405180910390a150505b610cd1838383611cb9565b505050565b6000610ce1836110bd565b8210610d22576040517f08c379a0000000000000000000000000000000000000000000000000000000008152600401610d19906138ba565b60405180910390fd5b600660008473ffffffffffffffffffffffffffffffffffffffff1673ffffffffffffffffffffffffffffffffffffffff168152602001908152602001600020600083815260200190815260200160002054905092915050565b60105481565b60011515610d8d611227565b151514610dcf576040517f08c379a0000000000000000000000000000000000000000000000000000000008152600401610dc690613482565b60405180910390fd5b6000341115610ebe576000606460105434610dea91906135f5565b610df4919061367e565b9050610dff81611b21565b60008473ffffffffffffffffffffffffffffffffffffffff168234610e2491906136af565b604051610e3090613714565b60006040518083038185875af1925050503d8060008114610e6d576040519150601f19603f3d011682016040523d82523d6000602084013e610e72565b606091505b5050905080610e8057600080fd5b7f3f3483d0995db4c081e0101ef6753bef457833c20605cd871de61dcb48085a9a858534604051610eb393929190613811565b60405180910390a150505b610ed98383836040518060200160405280600081525061137f565b505050565b600f60009054906101000a900473ffffffffffffffffffffffffffffffffffffffff1681565b6000610f0e610b2c565b8210610f4f576040517f08c379a0000000000000000000000000000000000000000000000000000000008152600401610f469061394c565b60405180910390fd5b60088281548110610f6357610f6261396c565b5b90600052602060002001549050919050565b610f7d611a60565b73ffffffffffffffffffffffffffffffffffffffff16610f9b6111fd565b73ffffffffffffffffffffffffffffffffffffffff1614610ff1576040517f08c379a0000000000000000000000000000000000000000000000000000000008152600401610fe8906139e7565b60405180910390fd5b80600d9080519060200190611007929190612bf3565b5050565b6000806002600084815260200190815260200160002060009054906101000a900473ffffffffffffffffffffffffffffffffffffffff169050600073ffffffffffffffffffffffffffffffffffffffff168173ffffffffffffffffffffffffffffffffffffffff1614156110b4576040517f08c379a00000000000000000000000000000000000000000000000000000000081526004016110ab90613a79565b60405180910390fd5b80915050919050565b60008073ffffffffffffffffffffffffffffffffffffffff168273ffffffffffffffffffffffffffffffffffffffff16141561112e576040517f08c379a000000000000000000000000000000000000000000000000000000000815260040161112590613b0b565b60405180910390fd5b600360008373ffffffffffffffffffffffffffffffffffffffff1673ffffffffffffffffffffffffffffffffffffffff168152602001908152602001600020549050919050565b61117d611a60565b73ffffffffffffffffffffffffffffffffffffffff1661119b6111fd565b73ffffffffffffffffffffffffffffffffffffffff16146111f1576040517f08c379a00000000000000000000000000000000000000000000000000000000081526004016111e8906139e7565b60405180910390fd5b6111fb6000611f15565b565b6000600a60009054906101000a900473ffffffffffffffffffffffffffffffffffffffff16905090565b6000601160009054906101000a900460ff16905090565b601160009054906101000a900460ff1681565b60606001805461126090613372565b80601f016020809104026020016040519081016040528092919081815260200182805461128c90613372565b80156112d95780601f106112ae576101008083540402835291602001916112d9565b820191906000526020600020905b8154815290600101906020018083116112bc57829003601f168201915b5050505050905090565b6112eb611a60565b73ffffffffffffffffffffffffffffffffffffffff166113096111fd565b73ffffffffffffffffffffffffffffffffffffffff161461135f576040517f08c379a0000000000000000000000000000000000000000000000000000000008152600401611356906139e7565b60405180910390fd5b8060108190555050565b61137b611374611a60565b8383611fdb565b5050565b6001151561138b611227565b1515146113cd576040517f08c379a00000000000000000000000000000000000000000000000000000000081526004016113c490613482565b60405180910390fd5b6113de6113d8611a60565b83611bdb565b61141d576040517f08c379a0000000000000000000000000000000000000000000000000000000008152600401611414906137f1565b60405180910390fd5b600034111561150c57600060646010543461143891906135f5565b611442919061367e565b905061144d81611b21565b60008573ffffffffffffffffffffffffffffffffffffffff16823461147291906136af565b60405161147e90613714565b60006040518083038185875af1925050503d80600081146114bb576040519150601f19603f3d011682016040523d82523d6000602084013e6114c0565b606091505b50509050806114ce57600080fd5b7f3f3483d0995db4c081e0101ef6753bef457833c20605cd871de61dcb48085a9a86863460405161150193929190613811565b60405180910390a150505b61151884848484612148565b50505050565b600e805461152b90613372565b80601f016020809104026020016040519081016040528092919081815260200182805461155790613372565b80156115a45780601f10611579576101008083540402835291602001916115a4565b820191906000526020600020905b81548152906001019060200180831161158757829003601f168201915b505050505081565b60606115b7826119f4565b6115f6576040517f08c379a00000000000000000000000000000000000000000000000000000000081526004016115ed90613b9d565b60405180910390fd5b60006116006121a4565b90506000815111611620576040518060200160405280600081525061164e565b8061162a84612236565b600e60405160200161163e93929190613c8d565b6040516020818303038152906040525b915050919050565b600c5481565b6000611666611a60565b73ffffffffffffffffffffffffffffffffffffffff166116846111fd565b73ffffffffffffffffffffffffffffffffffffffff16146116da576040517f08c379a00000000000000000000000000000000000000000000000000000000081526004016116d1906139e7565b60405180910390fd5b601160009054906101000a900460ff161561170f576000601160006101000a81548160ff02191690831515021790555061172b565b6001601160006101000a81548160ff0219169083151502179055505b7f40cec7445e6af82a2c1482720f9cde27ef6cc85136e8b7abd3efd8c6a0ee566f601160009054906101000a900460ff166040516117699190612d4a565b60405180910390a1601160009054906101000a900460ff16905090565b6000600560008473ffffffffffffffffffffffffffffffffffffffff1673ffffffffffffffffffffffffffffffffffffffff16815260200190815260200160002060008373ffffffffffffffffffffffffffffffffffffffff1673ffffffffffffffffffffffffffffffffffffffff16815260200190815260200160002060009054906101000a900460ff16905092915050565b611822611a60565b73ffffffffffffffffffffffffffffffffffffffff166118406111fd565b73ffffffffffffffffffffffffffffffffffffffff1614611896576040517f08c379a000000000000000000000000000000000000000000000000000000000815260040161188d906139e7565b60405180910390fd5b600073ffffffffffffffffffffffffffffffffffffffff168173ffffffffffffffffffffffffffffffffffffffff161415611906576040517f08c379a00000000000000000000000000000000000000000000000000000000081526004016118fd90613d30565b60405180910390fd5b61190f81611f15565b50565b60007f80ac58cd000000000000000000000000000000000000000000000000000000007bffffffffffffffffffffffffffffffffffffffffffffffffffffffff1916827bffffffffffffffffffffffffffffffffffffffffffffffffffffffff191614806119dd57507f5b5e139f000000000000000000000000000000000000000000000000000000007bffffffffffffffffffffffffffffffffffffffffffffffffffffffff1916827bffffffffffffffffffffffffffffffffffffffffffffffffffffffff1916145b806119ed57506119ec82612397565b5b9050919050565b60008073ffffffffffffffffffffffffffffffffffffffff166002600084815260200190815260200160002060009054906101000a900473ffffffffffffffffffffffffffffffffffffffff1673ffffffffffffffffffffffffffffffffffffffff1614159050919050565b600033905090565b816004600083815260200190815260200160002060006101000a81548173ffffffffffffffffffffffffffffffffffffffff021916908373ffffffffffffffffffffffffffffffffffffffff160217905550808273ffffffffffffffffffffffffffffffffffffffff16611adb8361100b565b73ffffffffffffffffffffffffffffffffffffffff167f8c5be1e5ebec7d5bd14f71427d1e84f3dd0314c0f7b2291e5b200ac8c7c3b92560405160405180910390a45050565b6000600f60009054906101000a900473ffffffffffffffffffffffffffffffffffffffff1673ffffffffffffffffffffffffffffffffffffffff1682604051611b6990613714565b60006040518083038185875af1925050503d8060008114611ba6576040519150601f19603f3d011682016040523d82523d6000602084013e611bab565b606091505b5050905080611bb957600080fd5b5050565b611bd7828260405180602001604052806000815250612401565b5050565b6000611be6826119f4565b611c25576040517f08c379a0000000000000000000000000000000000000000000000000000000008152600401611c1c90613dc2565b60405180910390fd5b6000611c308361100b565b90508073ffffffffffffffffffffffffffffffffffffffff168473ffffffffffffffffffffffffffffffffffffffff161480611c9f57508373ffffffffffffffffffffffffffffffffffffffff16611c878461080c565b73ffffffffffffffffffffffffffffffffffffffff16145b80611cb05750611caf8185611786565b5b91505092915050565b8273ffffffffffffffffffffffffffffffffffffffff16611cd98261100b565b73ffffffffffffffffffffffffffffffffffffffff1614611d2f576040517f08c379a0000000000000000000000000000000000000000000000000000000008152600401611d2690613e54565b60405180910390fd5b600073ffffffffffffffffffffffffffffffffffffffff168273ffffffffffffffffffffffffffffffffffffffff161415611d9f576040517f08c379a0000000000000000000000000000000000000000000000000000000008152600401611d9690613ee6565b60405180910390fd5b611daa83838361245c565b611db5600082611a68565b6001600360008573ffffffffffffffffffffffffffffffffffffffff1673ffffffffffffffffffffffffffffffffffffffff1681526020019081526020016000206000828254611e0591906136af565b925050819055506001600360008473ffffffffffffffffffffffffffffffffffffffff1673ffffffffffffffffffffffffffffffffffffffff1681526020019081526020016000206000828254611e5c9190613729565b92505081905550816002600083815260200190815260200160002060006101000a81548173ffffffffffffffffffffffffffffffffffffffff021916908373ffffffffffffffffffffffffffffffffffffffff160217905550808273ffffffffffffffffffffffffffffffffffffffff168473ffffffffffffffffffffffffffffffffffffffff167fddf252ad1be2c89b69c2b068fc378daa952ba7f163c4a11628f55a4df523b3ef60405160405180910390a4505050565b6000600a60009054906101000a900473ffffffffffffffffffffffffffffffffffffffff16905081600a60006101000a81548173ffffffffffffffffffffffffffffffffffffffff021916908373ffffffffffffffffffffffffffffffffffffffff1602179055508173ffffffffffffffffffffffffffffffffffffffff168173ffffffffffffffffffffffffffffffffffffffff167f8be0079c531659141344cd1fd0a4f28419497f9722a3daafe3b4186f6b6457e060405160405180910390a35050565b8173ffffffffffffffffffffffffffffffffffffffff168373ffffffffffffffffffffffffffffffffffffffff16141561204a576040517f08c379a000000000000000000000000000000000000000000000000000000000815260040161204190613f52565b60405180910390fd5b80600560008573ffffffffffffffffffffffffffffffffffffffff1673ffffffffffffffffffffffffffffffffffffffff16815260200190815260200160002060008473ffffffffffffffffffffffffffffffffffffffff1673ffffffffffffffffffffffffffffffffffffffff16815260200190815260200160002060006101000a81548160ff0219169083151502179055508173ffffffffffffffffffffffffffffffffffffffff168373ffffffffffffffffffffffffffffffffffffffff167f17307eab39ab6107e8899845ad3d59bd9653f200f220920489ca2b5937696c318360405161213b9190612d4a565b60405180910390a3505050565b612153848484611cb9565b61215f84848484612570565b61219e576040517f08c379a000000000000000000000000000000000000000000000000000000000815260040161219590613fe4565b60405180910390fd5b50505050565b6060600d80546121b390613372565b80601f01602080910402602001604051908101604052809291908181526020018280546121df90613372565b801561222c5780601f106122015761010080835404028352916020019161222c565b820191906000526020600020905b81548152906001019060200180831161220f57829003601f168201915b5050505050905090565b6060600082141561227e576040518060400160405280600181526020017f30000000000000000000000000000000000000000000000000000000000000008152509050612392565b600082905060005b600082146122b057808061229990614004565b915050600a826122a9919061367e565b9150612286565b60008167ffffffffffffffff8111156122cc576122cb612fd2565b5b6040519080825280601f01601f1916602001820160405280156122fe5781602001600182028036833780820191505090505b5090505b6000851461238b5760018261231791906136af565b9150600a85612326919061404d565b60306123329190613729565b60f81b8183815181106123485761234761396c565b5b60200101907effffffffffffffffffffffffffffffffffffffffffffffffffffffffffffff1916908160001a905350600a85612384919061367e565b9450612302565b8093505050505b919050565b60007f01ffc9a7000000000000000000000000000000000000000000000000000000007bffffffffffffffffffffffffffffffffffffffffffffffffffffffff1916827bffffffffffffffffffffffffffffffffffffffffffffffffffffffff1916149050919050565b61240b8383612707565b6124186000848484612570565b612457576040517f08c379a000000000000000000000000000000000000000000000000000000000815260040161244e90613fe4565b60405180910390fd5b505050565b6124678383836128d5565b600073ffffffffffffffffffffffffffffffffffffffff168373ffffffffffffffffffffffffffffffffffffffff1614156124aa576124a5816128da565b6124e9565b8173ffffffffffffffffffffffffffffffffffffffff168373ffffffffffffffffffffffffffffffffffffffff16146124e8576124e78382612923565b5b5b600073ffffffffffffffffffffffffffffffffffffffff168273ffffffffffffffffffffffffffffffffffffffff16141561252c5761252781612a90565b61256b565b8273ffffffffffffffffffffffffffffffffffffffff168273ffffffffffffffffffffffffffffffffffffffff161461256a576125698282612b61565b5b5b505050565b60006125918473ffffffffffffffffffffffffffffffffffffffff16612be0565b156126fa578373ffffffffffffffffffffffffffffffffffffffff1663150b7a026125ba611a60565b8786866040518563ffffffff1660e01b81526004016125dc94939291906140d3565b602060405180830381600087803b1580156125f657600080fd5b505af192505050801561262757506040513d601f19601f820116820180604052508101906126249190614134565b60015b6126aa573d8060008114612657576040519150601f19603f3d011682016040523d82523d6000602084013e61265c565b606091505b506000815114156126a2576040517f08c379a000000000000000000000000000000000000000000000000000000000815260040161269990613fe4565b60405180910390fd5b805181602001fd5b63150b7a0260e01b7bffffffffffffffffffffffffffffffffffffffffffffffffffffffff1916817bffffffffffffffffffffffffffffffffffffffffffffffffffffffff1916149150506126ff565b600190505b949350505050565b600073ffffffffffffffffffffffffffffffffffffffff168273ffffffffffffffffffffffffffffffffffffffff161415612777576040517f08c379a000000000000000000000000000000000000000000000000000000000815260040161276e906141ad565b60405180910390fd5b612780816119f4565b156127c0576040517f08c379a00000000000000000000000000000000000000000000000000000000081526004016127b790614219565b60405180910390fd5b6127cc6000838361245c565b6001600360008473ffffffffffffffffffffffffffffffffffffffff1673ffffffffffffffffffffffffffffffffffffffff168152602001908152602001600020600082825461281c9190613729565b92505081905550816002600083815260200190815260200160002060006101000a81548173ffffffffffffffffffffffffffffffffffffffff021916908373ffffffffffffffffffffffffffffffffffffffff160217905550808273ffffffffffffffffffffffffffffffffffffffff16600073ffffffffffffffffffffffffffffffffffffffff167fddf252ad1be2c89b69c2b068fc378daa952ba7f163c4a11628f55a4df523b3ef60405160405180910390a45050565b505050565b6008805490506009600083815260200190815260200160002081905550600881908060018154018082558091505060019003906000526020600020016000909190919091505550565b60006001612930846110bd565b61293a91906136af565b9050600060076000848152602001908152602001600020549050818114612a1f576000600660008673ffffffffffffffffffffffffffffffffffffffff1673ffffffffffffffffffffffffffffffffffffffff168152602001908152602001600020600084815260200190815260200160002054905080600660008773ffffffffffffffffffffffffffffffffffffffff1673ffffffffffffffffffffffffffffffffffffffff168152602001908152602001600020600084815260200190815260200160002081905550816007600083815260200190815260200160002081905550505b6007600084815260200190815260200160002060009055600660008573ffffffffffffffffffffffffffffffffffffffff1673ffffffffffffffffffffffffffffffffffffffff16815260200190815260200160002060008381526020019081526020016000206000905550505050565b60006001600880549050612aa491906136af565b9050600060096000848152602001908152602001600020549050600060088381548110612ad457612ad361396c565b5b906000526020600020015490508060088381548110612af657612af561396c565b5b906000526020600020018190555081600960008381526020019081526020016000208190555060096000858152602001908152602001600020600090556008805480612b4557612b44614239565b5b6001900381819060005260206000200160009055905550505050565b6000612b6c836110bd565b905081600660008573ffffffffffffffffffffffffffffffffffffffff1673ffffffffffffffffffffffffffffffffffffffff168152602001908152602001600020600083815260200190815260200160002081905550806007600084815260200190815260200160002081905550505050565b600080823b905060008111915050919050565b828054612bff90613372565b90600052602060002090601f016020900481019282612c215760008555612c68565b82601f10612c3a57805160ff1916838001178555612c68565b82800160010185558215612c68579182015b82811115612c67578251825591602001919060010190612c4c565b5b509050612c759190612c79565b5090565b5b80821115612c92576000816000905550600101612c7a565b5090565b6000604051905090565b600080fd5b600080fd5b60007fffffffff0000000000000000000000000000000000000000000000000000000082169050919050565b612cdf81612caa565b8114612cea57600080fd5b50565b600081359050612cfc81612cd6565b92915050565b600060208284031215612d1857612d17612ca0565b5b6000612d2684828501612ced565b91505092915050565b60008115159050919050565b612d4481612d2f565b82525050565b6000602082019050612d5f6000830184612d3b565b92915050565b600081519050919050565b600082825260208201905092915050565b60005b83811015612d9f578082015181840152602081019050612d84565b83811115612dae576000848401525b50505050565b6000601f19601f8301169050919050565b6000612dd082612d65565b612dda8185612d70565b9350612dea818560208601612d81565b612df381612db4565b840191505092915050565b60006020820190508181036000830152612e188184612dc5565b905092915050565b6000819050919050565b612e3381612e20565b8114612e3e57600080fd5b50565b600081359050612e5081612e2a565b92915050565b600060208284031215612e6c57612e6b612ca0565b5b6000612e7a84828501612e41565b91505092915050565b600073ffffffffffffffffffffffffffffffffffffffff82169050919050565b6000612eae82612e83565b9050919050565b612ebe81612ea3565b82525050565b6000602082019050612ed96000830184612eb5565b92915050565b612ee881612ea3565b8114612ef357600080fd5b50565b600081359050612f0581612edf565b92915050565b60008060408385031215612f2257612f21612ca0565b5b6000612f3085828601612ef6565b9250506020612f4185828601612e41565b9150509250929050565b612f5481612e20565b82525050565b6000602082019050612f6f6000830184612f4b565b92915050565b600080600060608486031215612f8e57612f8d612ca0565b5b6000612f9c86828701612ef6565b9350506020612fad86828701612ef6565b9250506040612fbe86828701612e41565b9150509250925092565b600080fd5b600080fd5b7f4e487b7100000000000000000000000000000000000000000000000000000000600052604160045260246000fd5b61300a82612db4565b810181811067ffffffffffffffff8211171561302957613028612fd2565b5b80604052505050565b600061303c612c96565b90506130488282613001565b919050565b600067ffffffffffffffff82111561306857613067612fd2565b5b61307182612db4565b9050602081019050919050565b82818337600083830152505050565b60006130a061309b8461304d565b613032565b9050828152602081018484840111156130bc576130bb612fcd565b5b6130c784828561307e565b509392505050565b600082601f8301126130e4576130e3612fc8565b5b81356130f484826020860161308d565b91505092915050565b60006020828403121561311357613112612ca0565b5b600082013567ffffffffffffffff81111561313157613130612ca5565b5b61313d848285016130cf565b91505092915050565b60006020828403121561315c5761315b612ca0565b5b600061316a84828501612ef6565b91505092915050565b61317c81612d2f565b811461318757600080fd5b50565b60008135905061319981613173565b92915050565b600080604083850312156131b6576131b5612ca0565b5b60006131c485828601612ef6565b92505060206131d58582860161318a565b9150509250929050565b600067ffffffffffffffff8211156131fa576131f9612fd2565b5b61320382612db4565b9050602081019050919050565b600061322361321e846131df565b613032565b90508281526020810184848401111561323f5761323e612fcd565b5b61324a84828561307e565b509392505050565b600082601f83011261326757613266612fc8565b5b8135613277848260208601613210565b91505092915050565b6000806000806080858703121561329a57613299612ca0565b5b60006132a887828801612ef6565b94505060206132b987828801612ef6565b93505060406132ca87828801612e41565b925050606085013567ffffffffffffffff8111156132eb576132ea612ca5565b5b6132f787828801613252565b91505092959194509250565b6000806040838503121561331a57613319612ca0565b5b600061332885828601612ef6565b925050602061333985828601612ef6565b9150509250929050565b7f4e487b7100000000000000000000000000000000000000000000000000000000600052602260045260246000fd5b6000600282049050600182168061338a57607f821691505b6020821081141561339e5761339d613343565b5b50919050565b7f4552433732313a20617070726f76656420717565727920666f72206e6f6e657860008201527f697374656e7420746f6b656e0000000000000000000000000000000000000000602082015250565b6000613400602c83612d70565b915061340b826133a4565b604082019050919050565b6000602082019050818103600083015261342f816133f3565b9050919050565b7f4d656d62657273686970733a206e6f74207472616e7366657261626c65000000600082015250565b600061346c601d83612d70565b915061347782613436565b602082019050919050565b6000602082019050818103600083015261349b8161345f565b9050919050565b7f4552433732313a20617070726f76616c20746f2063757272656e74206f776e6560008201527f7200000000000000000000000000000000000000000000000000000000000000602082015250565b60006134fe602183612d70565b9150613509826134a2565b604082019050919050565b6000602082019050818103600083015261352d816134f1565b9050919050565b7f4552433732313a20617070726f76652063616c6c6572206973206e6f74206f7760008201527f6e6572206e6f7220617070726f76656420666f7220616c6c0000000000000000602082015250565b6000613590603883612d70565b915061359b82613534565b604082019050919050565b600060208201905081810360008301526135bf81613583565b9050919050565b7f4e487b7100000000000000000000000000000000000000000000000000000000600052601160045260246000fd5b600061360082612e20565b915061360b83612e20565b9250817fffffffffffffffffffffffffffffffffffffffffffffffffffffffffffffffff0483118215151615613644576136436135c6565b5b828202905092915050565b7f4e487b7100000000000000000000000000000000000000000000000000000000600052601260045260246000fd5b600061368982612e20565b915061369483612e20565b9250826136a4576136a361364f565b5b828204905092915050565b60006136ba82612e20565b91506136c583612e20565b9250828210156136d8576136d76135c6565b5b828203905092915050565b600081905092915050565b50565b60006136fe6000836136e3565b9150613709826136ee565b600082019050919050565b600061371f826136f1565b9150819050919050565b600061373482612e20565b915061373f83612e20565b9250827fffffffffffffffffffffffffffffffffffffffffffffffffffffffffffffffff03821115613774576137736135c6565b5b828201905092915050565b7f4552433732313a207472616e736665722063616c6c6572206973206e6f74206f60008201527f776e6572206e6f7220617070726f766564000000000000000000000000000000602082015250565b60006137db603183612d70565b91506137e68261377f565b604082019050919050565b6000602082019050818103600083015261380a816137ce565b9050919050565b60006060820190506138266000830186612eb5565b6138336020830185612eb5565b6138406040830184612f4b565b949350505050565b7f455243373231456e756d657261626c653a206f776e657220696e646578206f7560008201527f74206f6620626f756e6473000000000000000000000000000000000000000000602082015250565b60006138a4602b83612d70565b91506138af82613848565b604082019050919050565b600060208201905081810360008301526138d381613897565b9050919050565b7f455243373231456e756d657261626c653a20676c6f62616c20696e646578206f60008201527f7574206f6620626f756e64730000000000000000000000000000000000000000602082015250565b6000613936602c83612d70565b9150613941826138da565b604082019050919050565b6000602082019050818103600083015261396581613929565b9050919050565b7f4e487b7100000000000000000000000000000000000000000000000000000000600052603260045260246000fd5b7f4f776e61626c653a2063616c6c6572206973206e6f7420746865206f776e6572600082015250565b60006139d1602083612d70565b91506139dc8261399b565b602082019050919050565b60006020820190508181036000830152613a00816139c4565b9050919050565b7f4552433732313a206f776e657220717565727920666f72206e6f6e657869737460008201527f656e7420746f6b656e0000000000000000000000000000000000000000000000602082015250565b6000613a63602983612d70565b9150613a6e82613a07565b604082019050919050565b60006020820190508181036000830152613a9281613a56565b9050919050565b7f4552433732313a2062616c616e636520717565727920666f7220746865207a6560008201527f726f206164647265737300000000000000000000000000000000000000000000602082015250565b6000613af5602a83612d70565b9150613b0082613a99565b604082019050919050565b60006020820190508181036000830152613b2481613ae8565b9050919050565b7f4552433732314d657461646174613a2055524920717565727920666f72206e6f60008201527f6e6578697374656e7420746f6b656e0000000000000000000000000000000000602082015250565b6000613b87602f83612d70565b9150613b9282613b2b565b604082019050919050565b60006020820190508181036000830152613bb681613b7a565b9050919050565b600081905092915050565b6000613bd382612d65565b613bdd8185613bbd565b9350613bed818560208601612d81565b80840191505092915050565b60008190508160005260206000209050919050565b60008154613c1b81613372565b613c258186613bbd565b94506001821660008114613c405760018114613c5157613c84565b60ff19831686528186019350613c84565b613c5a85613bf9565b60005b83811015613c7c57815481890152600182019150602081019050613c5d565b838801955050505b50505092915050565b6000613c998286613bc8565b9150613ca58285613bc8565b9150613cb18284613c0e565b9150819050949350505050565b7f4f776e61626c653a206e6577206f776e657220697320746865207a65726f206160008201527f6464726573730000000000000000000000000000000000000000000000000000602082015250565b6000613d1a602683612d70565b9150613d2582613cbe565b604082019050919050565b60006020820190508181036000830152613d4981613d0d565b9050919050565b7f4552433732313a206f70657261746f7220717565727920666f72206e6f6e657860008201527f697374656e7420746f6b656e0000000000000000000000000000000000000000602082015250565b6000613dac602c83612d70565b9150613db782613d50565b604082019050919050565b60006020820190508181036000830152613ddb81613d9f565b9050919050565b7f4552433732313a207472616e73666572206f6620746f6b656e2074686174206960008201527f73206e6f74206f776e0000000000000000000000000000000000000000000000602082015250565b6000613e3e602983612d70565b9150613e4982613de2565b604082019050919050565b60006020820190508181036000830152613e6d81613e31565b9050919050565b7f4552433732313a207472616e7366657220746f20746865207a65726f2061646460008201527f7265737300000000000000000000000000000000000000000000000000000000602082015250565b6000613ed0602483612d70565b9150613edb82613e74565b604082019050919050565b60006020820190508181036000830152613eff81613ec3565b9050919050565b7f4552433732313a20617070726f766520746f2063616c6c657200000000000000600082015250565b6000613f3c601983612d70565b9150613f4782613f06565b602082019050919050565b60006020820190508181036000830152613f6b81613f2f565b9050919050565b7f4552433732313a207472616e7366657220746f206e6f6e20455243373231526560008201527f63656976657220696d706c656d656e7465720000000000000000000000000000602082015250565b6000613fce603283612d70565b9150613fd982613f72565b604082019050919050565b60006020820190508181036000830152613ffd81613fc1565b9050919050565b600061400f82612e20565b91507fffffffffffffffffffffffffffffffffffffffffffffffffffffffffffffffff821415614042576140416135c6565b5b600182019050919050565b600061405882612e20565b915061406383612e20565b9250826140735761407261364f565b5b828206905092915050565b600081519050919050565b600082825260208201905092915050565b60006140a58261407e565b6140af8185614089565b93506140bf818560208601612d81565b6140c881612db4565b840191505092915050565b60006080820190506140e86000830187612eb5565b6140f56020830186612eb5565b6141026040830185612f4b565b8181036060830152614114818461409a565b905095945050505050565b60008151905061412e81612cd6565b92915050565b60006020828403121561414a57614149612ca0565b5b60006141588482850161411f565b91505092915050565b7f4552433732313a206d696e7420746f20746865207a65726f2061646472657373600082015250565b6000614197602083612d70565b91506141a282614161565b602082019050919050565b600060208201905081810360008301526141c68161418a565b9050919050565b7f4552433732313a20746f6b656e20616c7265616479206d696e74656400000000600082015250565b6000614203601c83612d70565b915061420e826141cd565b602082019050919050565b60006020820190508181036000830152614232816141f6565b9050919050565b7f4e487b7100000000000000000000000000000000000000000000000000000000600052603160045260246000fdfea2646970667358221220788148791b26bb2483c3719646c113b707f0185ee406dfe1d6e9ad63ff7f46d764736f6c63430008090033",
  "immutableReferences": {},
  "source": "// SPDX-License-Identifier: MIT\n\nimport \"./ERC721.sol\";\nimport \"./ERC721Enumerable.sol\";\nimport \"@openzeppelin/contracts/access/Ownable.sol\";\n\npragma solidity >=0.7.0 <0.9.0;\n\ncontract NFT is ERC721Enumerable, Ownable {\n\n    using Strings for uint256;\n\n    uint256 public cost = 1 ether;\n    uint256 public maxSupply = 20;\n\n    string baseURI;\n    string public baseExtension = \".json\";\n\n    address public artist;\n    uint256 public royalityFee;\n\n\n    bool public transferable_;\n\n    // Events\n    event Sale(address from, address to, uint256 value);\n\n    event ToggleTransferable(bool transferable);\n\n    constructor(\n        string memory _name,\n        string memory _symbol,\n        string memory _initBaseURI,\n        uint256 _royalityFee,\n        address _artist,\n        bool _transferable\n    ) ERC721(_name, _symbol) {\n        setBaseURI(_initBaseURI);\n        royalityFee = _royalityFee;\n        artist = _artist;\n        transferable_ = _transferable;\n    }\n\n\n\n    // External functions\n    function toggleTransferable() external onlyOwner returns (bool) {\n        if (transferable_) {\n            transferable_ = false;\n        } else {\n            transferable_ = true;\n        }\n        emit ToggleTransferable(transferable_);\n        return transferable_;\n    }\n\n\n    // Public functions\n    function transferable() public view returns (bool) {\n        return transferable_;\n    }\n\n    function mint() public payable {\n        uint256 supply = totalSupply();\n        require(supply <= maxSupply);\n\n        if (msg.sender != owner()) {\n            require(msg.value >= cost);\n\n            // Pay royality to artist, and remaining to deployer of contract\n\n            uint256 royality = (msg.value * royalityFee) / 100;\n            _payRoyality(royality);\n\n            (bool success2, ) = payable(owner()).call{\n                value: (msg.value - royality)\n            }(\"\");\n            require(success2);\n        }\n\n        _safeMint(msg.sender, supply + 1);\n    }\n\n    function tokenURI(uint256 tokenId)\n        public\n        view\n        virtual\n        override\n        returns (string memory)\n    {\n        require(\n            _exists(tokenId),\n            \"ERC721Metadata: URI query for nonexistent token\"\n        );\n\n        string memory currentBaseURI = _baseURI();\n        return\n            bytes(currentBaseURI).length > 0\n                ? string(\n                    abi.encodePacked(\n                        currentBaseURI,\n                        tokenId.toString(),\n                        baseExtension\n                    )\n                )\n                : \"\";\n    }\n\n\n//___________________________________________________\n    // Added isTransferable only\n    function approve(address to, uint256 tokenId)\n        public\n        override\n        isTransferable\n    {\n        //_isApprovedOrOwner(_msgSender(), tokenId),\n        address owner = ERC721.ownerOf(tokenId);\n        require(to != owner, \"ERC721: approval to current owner\");\n\n        require(\n            _msgSender() == owner || isApprovedForAll(owner, _msgSender()),\n            \"ERC721: approve caller is not owner nor approved for all\"\n        );\n\n        _approve(to, tokenId);\n    }\n//___________________________________________________\n\n\n    // Added isTransferable only\n    function transferFrom(\n        address from,\n        address to,\n        uint256 tokenId\n    ) public payable override isTransferable{\n        require(\n            _isApprovedOrOwner(_msgSender(), tokenId),\n            \"ERC721: transfer caller is not owner nor approved\"\n        );\n\n        if (msg.value > 0) {\n            uint256 royality = (msg.value * royalityFee) / 100;\n            _payRoyality(royality);\n\n            (bool success2, ) = payable(from).call{value: msg.value - royality}(\n                \"\"\n            );\n            require(success2);\n\n            emit Sale(from, to, msg.value);\n        }\n\n        _transfer(from, to, tokenId);\n    }\n\n    // Added isTransferable only\n    function safeTransferFrom(\n        address from,\n        address to,\n        uint256 tokenId\n    ) public payable override isTransferable{\n        if (msg.value > 0) {\n            uint256 royality = (msg.value * royalityFee) / 100;\n            _payRoyality(royality);\n\n            (bool success2, ) = payable(from).call{value: msg.value - royality}(\n                \"\"\n            );\n            require(success2);\n\n            emit Sale(from, to, msg.value);\n        }\n\n        safeTransferFrom(from, to, tokenId, \"\");\n    }\n\n    // Added isTransferable only\n    function safeTransferFrom(\n        address from,\n        address to,\n        uint256 tokenId,\n        bytes memory _data\n    ) public payable override isTransferable {\n        require(\n            _isApprovedOrOwner(_msgSender(), tokenId),\n            \"ERC721: transfer caller is not owner nor approved\"\n        );\n\n        if (msg.value > 0) {\n            uint256 royality = (msg.value * royalityFee) / 100;\n            _payRoyality(royality);\n\n            (bool success2, ) = payable(from).call{value: msg.value - royality}(\n                \"\"\n            );\n            require(success2);\n\n            emit Sale(from, to, msg.value);\n        }\n\n        _safeTransfer(from, to, tokenId, _data);\n    }\n\n    // Internal functions\n    function _baseURI() internal view virtual override returns (string memory) {\n        return baseURI;\n    }\n\n    function _payRoyality(uint256 _royalityFee) internal {\n        (bool success1, ) = payable(artist).call{value: _royalityFee}(\"\");\n        require(success1);\n    }\n\n    // Owner functions\n    function setBaseURI(string memory _newBaseURI) public onlyOwner {\n        baseURI = _newBaseURI;\n    }\n\n    function setRoyalityFee(uint256 _royalityFee) public onlyOwner {\n        royalityFee = _royalityFee;\n    }\n\n    // Modifiers\n    modifier isTransferable() {\n        require(transferable() == true, \"Memberships: not transferable\");\n        _;\n    }\n}\n",
  "sourcePath": "/home/dex/smart-contracts/creatorhelp/contracts/NFT.sol",
  "compiler": {
    "name": "solc",
    "version": "0.8.9+commit.e5eed63a.Emscripten.clang"
  },
  "schemaVersion": "3.4.4",
  "updatedAt": "2022-01-26T13:22:55.883Z",
  "networkType": "ethereum",
  "devdoc": {
    "kind": "dev",
    "methods": {
      "approve(address,uint256)": {
        "details": "See {IERC721-approve}."
      },
      "balanceOf(address)": {
        "details": "See {IERC721-balanceOf}."
      },
      "getApproved(uint256)": {
        "details": "See {IERC721-getApproved}."
      },
      "isApprovedForAll(address,address)": {
        "details": "See {IERC721-isApprovedForAll}."
      },
      "name()": {
        "details": "See {IERC721Metadata-name}."
      },
      "owner()": {
        "details": "Returns the address of the current owner."
      },
      "ownerOf(uint256)": {
        "details": "See {IERC721-ownerOf}."
      },
      "renounceOwnership()": {
        "details": "Leaves the contract without owner. It will not be possible to call `onlyOwner` functions anymore. Can only be called by the current owner. NOTE: Renouncing ownership will leave the contract without an owner, thereby removing any functionality that is only available to the owner."
      },
      "safeTransferFrom(address,address,uint256)": {
        "details": "See {IERC721-safeTransferFrom}."
      },
      "safeTransferFrom(address,address,uint256,bytes)": {
        "details": "See {IERC721-safeTransferFrom}."
      },
      "setApprovalForAll(address,bool)": {
        "details": "See {IERC721-setApprovalForAll}."
      },
      "supportsInterface(bytes4)": {
        "details": "See {IERC165-supportsInterface}."
      },
      "symbol()": {
        "details": "See {IERC721Metadata-symbol}."
      },
      "tokenByIndex(uint256)": {
        "details": "See {IERC721Enumerable-tokenByIndex}."
      },
      "tokenOfOwnerByIndex(address,uint256)": {
        "details": "See {IERC721Enumerable-tokenOfOwnerByIndex}."
      },
      "tokenURI(uint256)": {
        "details": "See {IERC721Metadata-tokenURI}."
      },
      "totalSupply()": {
        "details": "See {IERC721Enumerable-totalSupply}."
      },
      "transferFrom(address,address,uint256)": {
        "details": "See {IERC721-transferFrom}."
      },
      "transferOwnership(address)": {
        "details": "Transfers ownership of the contract to a new account (`newOwner`). Can only be called by the current owner."
      }
    },
    "version": 1
  },
  "userdoc": {
    "kind": "user",
    "methods": {},
    "version": 1
  }
}